:020000040000fa
:080000000002040000000000f2
:020000040000fa
:040008003e040000b2
:020000040000fa
:04000c003e040000ae
:020000040000fa
:040010003e040000aa
:020000040000fa
:040014003e040000a6
:020000040000fa
:040018003e040000a2
:020000040000fa
:04001c003e0400009e
:020000040000fa
:040020003e0400009a
:020000040000fa
:040024003e04000096
:020000040000fa
:040028003e04000092
:020000040000fa
:04002c003e0400008e
:020000040000fa
:040030003e0400008a
:020000040000fa
:0400340022ef0000b7
:020000040000fa
:040038003e04000082
:020000040000fa
:04003c003e0400007e
:020000040000fa
:040040003e0400007a
:020000040000fa
:040044003e04000076
:020000040000fa
:0400480002f00000c2
:020000040000fa
:04004c003e0400006e
:020000040000fa
:040050003e0400006a
:020000040000fa
:040054009ebc00004e
:020000040000fa
:04005800bcbc00002c
:020000040000fa
:04005c003e0400005e
:020000040000fa
:040060003e0400005a
:020000040000fa
:040064003e04000056
:020000040000fa
:040068003e04000052
:020000040000fa
:04006c003e0400004e
:020000040000fa
:040070003e0400004a
:020000040000fa
:040074003e04000046
:020000040000fa
:040078003e04000042
:020000040000fa
:04007c003e0400003e
:020000040000fa
:040080003e0400003a
:020000040000fa
:040084003e04000036
:020000040000fa
:040088003e04000032
:020000040000fa
:04008c003e0400002e
:020000040000fa
:040090003e0400002a
:020000040000fa
:040094003e04000026
:020000040000fa
:040098003e04000022
:020000040000fa
:04009c003e0400001e
:020000040000fa
:0400a000d2bf0000cb
:020000040000fa
:0400a40024c0000074
:020000040000fa
:0400a8003e04000012
:020000040000fa
:0400ac003e0400000e
:020000040000fa
:0400b0003e0400000a
:020000040000fa
:0400b4003e04000006
:020000040000fa
:0400b8003e04000002
:020000040000fa
:0400bc003e040000fe
:020000040000fa
:0400c0003e040000fa
:020000040000fa
:0400c4003e040000f6
:020000040000fa
:0400c8003e040000f2
:020000040000fa
:0400cc003e040000ee
:020000040000fa
:0400d0003e040000ea
:020000040000fa
:0400d4003e040000e6
:020000040000fa
:0400d8003e040000e2
:020000040000fa
:0400dc003e040000de
:020000040000fa
:0400e0003e040000da
:020000040000fa
:0400e4003e040000d6
:020000040000fa
:0400e8003e040000d2
:020000040000fa
:0400ec003e040000ce
:020000040000fa
:0400f0003e040000ca
:020000040000fa
:0400f4003e040000c6
:020000040000fa
:0400f8003e040000c2
:020000040000fa
:0400fc003e040000be
:020000040000fa
:040100003e040000b9
:020000040000fa
:040104003e040000b5
:020000040000fa
:040108003e040000b1
:020000040000fa
:04010c003e040000ad
:020000040000fa
:040110003e040000a9
:020000040000fa
:040114003e040000a5
:020000040000fa
:040118003e040000a1
:020000040000fa
:04011c003e0400009d
:020000040000fa
:040120003e04000099
:020000040000fa
:040124003e04000095
:020000040000fa
:040128003e04000091
:020000040000fa
:04012c003e0400008d
:020000040000fa
:040130003e04000089
:020000040000fa
:040134003e04000085
:020000040000fa
:040138003e04000081
:020000040000fa
:04013c003e0400007d
:020000040000fa
:040140003e04000079
:020000040000fa
:040144003e04000075
:020000040000fa
:040148003e04000071
:020000040000fa
:04014c003e0400006d
:020000040000fa
:040150003e04000069
:020000040000fa
:040154003e04000065
:020000040000fa
:040158003e04000061
:020000040000fa
:04015c003e0400005d
:020000040000fa
:040160003e04000059
:020000040000fa
:040164003e04000055
:020000040000fa
:040168003e04000051
:020000040000fa
:04016c003e0400004d
:020000040000fa
:040170003e04000049
:020000040000fa
:040174003e04000045
:020000040000fa
:040178003e04000041
:020000040000fa
:04017c003e0400003d
:020000040000fa
:040180003e04000039
:020000040000fa
:040184003e04000035
:020000040000fa
:040188003e04000031
:020000040000fa
:04018c003e0400002d
:020000040000fa
:040190003e04000029
:020000040000fa
:040194003e04000025
:020000040000fa
:040198003e04000021
:020000040000fa
:04019c003e0400001d
:020000040000fa
:0401a0003e04000019
:020000040000fa
:0401a4000aa50000a8
:020000040000fa
:0401a8003e04000011
:020000040000fa
:0401ac003e0400000d
:020000040000fa
:0401b0003e04000009
:020000040000fa
:0401b4003e04000005
:020000040000fa
:0401b8003e04000001
:020000040000fa
:0401bc003e040000fd
:020000040000fa
:0401c0003e040000f9
:020000040000fa
:0401c4003e040000f5
:020000040000fa
:0401c8003e040000f1
:020000040000fa
:0401cc003e040000ed
:020000040000fa
:0401d0003e040000e9
:020000040000fa
:0401d4003e040000e5
:020000040000fa
:0401d8003e040000e1
:020000040000fa
:0401dc003e040000dd
:020000040000fa
:0401e0003e040000d9
:020000040000fa
:0401e400bcca000091
:020000040000fa
:0401e8003e040000d1
:020000040000fa
:0401ec003e040000cd
:020000040000fa
:0401f0003e040000c9
:020000040000fa
:0401f4003e040000c5
:020000040000fa
:0401f8003e040000c1
:020000040000fa
:0401fc003e040000bd
:020000040000fa
:040200003e040000b8
:020000040000fa
:040204003e040000b4
:020000040000fa
:040208003e040000b0
:020000040000fa
:04020c003e040000ac
:020000040000fa
:040210003e040000a8
:020000040000fa
:040214003e040000a4
:020000040000fa
:040218003e040000a0
:020000040000fa
:04021c003e0400009c
:020000040000fa
:040220003e04000098
:020000040000fa
:040224003e04000094
:020000040000fa
:040228003e04000090
:020000040000fa
:04022c003e0400008c
:020000040000fa
:040230003e04000088
:020000040000fa
:040234003e04000084
:020000040000fa
:040238003e04000080
:020000040000fa
:04023c003e0400007c
:020000040000fa
:040240003e04000078
:020000040000fa
:040244003e04000074
:020000040000fa
:040248003e04000070
:020000040000fa
:04024c003e0400006c
:020000040000fa
:040250003e04000068
:020000040000fa
:040254003e04000064
:020000040000fa
:040258003e04000060
:020000040000fa
:04025c003e0400005c
:020000040000fa
:040260003e04000058
:020000040000fa
:040264003e04000054
:020000040000fa
:040268003e04000050
:020000040000fa
:04026c003e0400004c
:020000040000fa
:040270003e04000048
:020000040000fa
:040274003e04000044
:020000040000fa
:040278003e04000040
:020000040000fa
:04027c003e0400003c
:020000040000fa
:040280003e04000038
:020000040000fa
:040284003e04000034
:020000040000fa
:040288003e04000030
:020000040000fa
:04028c003e0400002c
:020000040000fa
:040290003e04000028
:020000040000fa
:040294003e04000024
:020000040000fa
:040298003e04000020
:020000040000fa
:04029c003e0400001c
:020000040000fa
:0402a0003e04000018
:020000040000fa
:0402a4003e04000014
:020000040000fa
:0402a8003e04000010
:020000040000fa
:0402ac003e0400000c
:020000040000fa
:0402b0003e04000008
:020000040000fa
:0402b4003e04000004
:020000040000fa
:0402b8003e04000000
:020000040000fa
:0402bc003e040000fc
:020000040000fa
:0402c0003e040000f8
:020000040000fa
:0402c4003e040000f4
:020000040000fa
:0402c8003e040000f0
:020000040000fa
:0402cc003e040000ec
:020000040000fa
:0402d0003e040000e8
:020000040000fa
:0402d4003e040000e4
:020000040000fa
:0402d8003e040000e0
:020000040000fa
:0402dc003e040000dc
:020000040000fa
:0402e0003e040000d8
:020000040000fa
:0402e4003e040000d4
:020000040000fa
:0402e8003e040000d0
:020000040000fa
:0402ec003e040000cc
:020000040000fa
:0402f0003e040000c8
:020000040000fa
:0402f4003e040000c4
:020000040000fa
:0402f8003e040000c0
:020000040000fa
:0402fc003e040000bc
:020000040000fa
:040300003e040000b7
:020000040000fa
:040304003e040000b3
:020000040000fa
:040308003e040000af
:020000040000fa
:04030c003e040000ab
:020000040000fa
:040310003e040000a7
:020000040000fa
:040314003e040000a3
:020000040000fa
:040318003e0400009f
:020000040000fa
:04031c003e0400009b
:020000040000fa
:040320003e04000097
:020000040000fa
:10040000cf7022000efc22000e01880000000000c8
:10041000000020000000e000020032000001200087
:100420002002880014000700780107000000e000a7
:1004300003003a0080d42d000100200002003700a4
:100440000000200001002000810f70000100320038
:100450000f000700000020000000e0000200320052
:100460000000020000000000d6fc020000000000b6
:100470000040da000000fe00c0af21000000e000f4
:1004800002003200002020009001880000000600d9
:10049000a1028800800478000000eb001f003700f4
:1004a000e284440054a0b4009905ba00e2844400f8
:1004b00054a0b4009906ba00e284440054a0b400e9
:1004c0000006eb00476fde00fd07b200ae018800ba
:1004d000636ce10003003a000ad801000000eb0061
:1004e0000e003700606ce10008003a00004deb00a0
:1004f0000a05e800020039003420ec000af0a000f0
:100500008b05e900f9ff3e00040037006168e10057
:10051000010032000086eb000b00070019c7ba008b
:100520001905ba000e04e00003003a000a00e000da
:10053000dbff3a0000000600fe07b200ae028800b2
:100540008a047800f5ff37000cd0a300e20f4d00bd
:100550001c00390089027800354dba000a05e80010
:10056000020039003420ec000af0a0008b05e900fd
:100570000f003200254dba000a05e80002003900dc
:100580003420ec000af0a0008b05e90008003200de
:100590000c00e0000600320015cdba000a05e800a4
:1005a000020039003420ec000af0a0008b05e900bd
:1005b0008984e80054a0b4000b00e000e2ff3a0098
:1005c000000006009902ba00055d78008b05e9007d
:1005d000f7ff3200c82ade00055d78008b05e900d0
:1005e000f3ff32000c00e000f1ff320019ddba0029
:1005f000eeff3700d282040000000000e482040015
:1006000000000000fc82040000000000ee830400f3
:10061000000000000684040000000000368404008e
:10062000000000004e840400000000006684040006
:1006300000000000c684040000000000de84040006
:1006400000000000fa840400000000004885040057
:10065000000000006e86040000000000ee8604002a
:10066000000000006e87040000000000ee87040018
:10067000000000006e88040000000000ee88040006
:10068000000000006e89040000000000ee890400f4
:10069000000000006e8a040000000000ee8a0400e2
:1006a000000000006e8b040000000000ee8b0400d0
:1006b000000000006e8c040000000000ee8c0400be
:1006c000000000006e8d040000000000ee8d0400ac
:1006d000000000006e8e040000000000ee8e04009a
:1006e000000000008a8f0400000000002690040033
:1006f00000000000c290040000000000e69004002a
:100700000000000034910400000000007a91040011
:100710000000000006a6040000000000dca50400a4
:10072000000000005ea6040000000000e2a6040035
:1007300000000000b2a90400000000005aaa040052
:1007400000000000eaa904000000000022aa040042
:100750000000000092aa0400000000007aa9040032
:1007600000000000caaa04000000000016a7040050
:1007700000000000b6a604000000000002ab040068
:100780000000000016ab040000000000e8a7040011
:1007900000000000c2a704000000000084a80400bc
:1007a0000000000066ab040000000000aaa80400de
:1007b00000000000d8ab040000000000aae604001e
:1007c00000000000bae604000000000022e7040078
:1007d00000000000c8e60400000000008ce70400f0
:1007e0000000000000e80400000000005ae80400d7
:1007f00000000000e8d6040000000000fad6040063
:10080000000000005ad704000000000008d70400d0
:1008100000000000b0d704000000000090d80400e1
:100820000000000052d904000000000062fb040038
:1008300000000000c2f704000000000064e10400b2
:1008400000000000c0e004000000000068e00400b8
:100850000000000030e2040000000000a8e80400ee
:100860000000000086e904000000000018ea04000f
:100870000000000014f60400000000000040da0050
:100880000000fe002002e20004003d002342ab0015
:10089000020032002302ab00feff32000040da000b
:1008a000feff37000a00fa00e20f50001f003e0072
:1008b00050388100e10f50000600320080232000f4
:1008c0004523200023232000042320000000e00013
:1008d00004003a008022200045222000232220002c
:1008e00004222000060028009403630002003a005e
:1008f00007087800140a730013a8a30001003a0047
:1009000013a0a00002007800050037001388a300a0
:10091000feff32003102fb00840a78000000e9008b
:100920000000e000f9ff3a00080037003300200023
:10093000b3bf9f00c0bf9f00d1bf9f00e2bf9f0019
:100940006a805700bf0c07006fb99700020078005b
:100950000080fa000000060000a0fe00841f78005e
:10096000851f7800881f78008a1f78004400f800ef
:10097000080f200028028800000490001005900055
:10098000a000900030019000c00190000300ca0058
:100990000280ca000030cb001a00cd004604c3001c
:1009a0000100ca004604c0001e04c0000605c000c5
:1009b0000100cd0021009800050d7800eaba9700eb
:1009c000052578004400f9004f0578004f047800b1
:1009d000cf0278004f0278000080fe000000060081
:1009e000801f78004000b0000008eb004f00780046
:1009f000801f7800100090000018eb000018eb003a
:100a00000008eb004f007800000006000000050021
:100a1000839f68000100e00002003d0060001000bc
:100a2000e08018000300e00002003d0060011100ba
:100a3000e0811900f00007004f00e00002003b00d9
:100a400060001000e0801800000006000001be00f9
:100a50009f0007000470a70003f0a1006509b10022
:100a6000160032000d0035006828e1000600350050
:100a7000f0ff2f00f1ff27000300e00013003b0010
:100a800001002800000005000000400081804800af
:100a90008502e900fcff3a0008003700f88f4200a9
:100aa00002003c008000eb00000005008100d10046
:100ab0000080d3008502e800fcff3a000300e0005c
:100ac00002003b0060001000e080180000000600fb
:100ad0000001be007e0007000470a70003f0a10023
:100ae00003f8a30013003a006509b10010003200ba
:100af000090035006928e1000200350001002800e6
:100b00000000050000004000818048008502e900e7
:100b1000fcff3a0000000600f88f42000500350097
:100b20008100d1000080d3008502e800fcff3a007c
:100b3000000006008000eb0000000500881f780020
:100b4000030478000300e00007003d00600010008f
:100b5000e080180060011900e081190002003b00ec
:100b600001f02d00030037000400070008f0a70083
:100b700001f0a0004f04780000000600889fbe002e
:100b80008a9fbe000082700004027100048271001e
:100b9000260032000004be000200be006011b80052
:100ba0006b092000950220000182cf000a00390065
:100bb0000541b1000082cf00070039000541b100b6
:100bc0000982cf00040039000541b1000882cf003e
:100bd000010039000541b100054252001200320007
:100be0000a003b0082817100610164008100d10034
:100bf0000080d3008984d3000884d3008b05e800eb
:100c00000442e800f7ff3a000700370008044400f8
:100c100089844c0000004800818048008b05e90071
:100c20000442e900f9ff3a00030007004f05be0047
:100c30004f04be00000006008100200061805500c6
:100c40000b003d000b00200061fe2f000100e100c1
:100c50001d00340082817100610164008904d100ab
:100c60000884d3000000e800faff3a007100200079
:100c7000610064000300700002006000090032009f
:100c800061044400e0844c000988a500050032009e
:100c90008b05e8006808e10002003a008904d100f1
:100ca0000884d300f20f20000258e10005003d0047
:100cb000c75ddd00f907b200898075000800780083
:100cc000000006000bf827008b00780000000500ec
:100cd000c70ade00f107b200f50fb20008003200cb
:100ce000e1cf4200020032000170a00024000500a4
:100cf000810f700001003200040805004400050067
:100d0000810f700002003a00140005008502e9001e
:100d10000000400081c04800fcff3b000170a000c3
:100d200024000500889fbe008a9fbe008c1f7800ab
:100d30000004be00e6ff07000478a30026003a0086
:100d40006120e1002500320009f8a30025003a00e7
:100d50006420e10021003200f507b1000508a3007e
:100d60000200320000004000818048006044b8006a
:100d70000310200002002000000040008180480095
:100d80000805440089854c000a0541008b8549000f
:100d90000a0550008b855800030033000a00be008e
:100da00002047400838474008301d1000281d300a3
:100db000830f7100f0ff3a008904d1000884d3004a
:100dc0006001490082017800c1adde00fb07b00080
:100dd00099ff07004c0137000960a0000800be0021
:100de000490137001202200052ac8800f0ff2f00aa
:100df000f1ff2700440137006022b80006022000fe
:100e00000000d0008180d2000482d2008582d2000e
:100e10000000a0000202520083825a000300310049
:100e20000202420083824a000000a1000603e9009a
:100e3000f3ff3a0000000600889fbe008a9fbe00b4
:100e400030044200b0844a0030054b0090854b00ce
:100e50006000b1000898be000a90be000440e100a6
:100e600005c8e10006d0e10007d8e100020031002a
:100e7000680040001008e8004f05be004f04be00a7
:100e800000000600889fbe008a9fbe003004be009e
:100e90002005be000418540005985c0006185d008b
:100ea00007985d00110020000440e10005c8e10042
:100eb00006d0e10007d8e100010039008000eb0016
:100ec000108810004f05be004f04be000000060051
:100ed0001200fa00889fbe008a9fbe008c9fbe0051
:100ee000e0b79f00f1b79f0082bf9f0093bf9f00b4
:100ef0000605be000404be000000eb00d0b79f0052
:100f0000c0b79f00b0b79f00a0b79f0090b79f00e9
:100f10000006eb005fb19700cfb09700820141005f
:100f20003fb097000200e00004003d0037000700da
:100f30007e805700c0ff0700030037003300070022
:100f40007e805700cfff0700dfb697000d00e0005e
:100f50000c0035006fb29700ffb297000fbb9700ef
:100f60009fbb970010002000010020006011b80016
:100f70000002720081827200020373008383730097
:100f80001b0007000c06e80001042000810f56003a
:100f9000e0ff3a000d00e00004003d000802be0042
:100fa0000a03be007e805700a3ff07005fa89700da
:100fb0000000e00005003a001fb29700afb29700b2
:100fc0003fb39700cfb39700090007006fb09700b9
:100fd000ffb097000fb997009fb997004f06be006a
:100fe0004f05be004f04be000080fa00000006005e
:100ff0000100070000000600a4b79f00b5b79f00de
:10100000c6b79f00d7b79f00000006004f09de005b
:1010100082817100b3b79f004f01de0081804000e4
:1010200082807000a1b79f008fb097004f09de004b
:10103000000040000200700090b79f007fa897005a
:101040004f01de00818040008280700081b79f00e8
:101050000d0007004f3ade00000040000400700061
:10106000f0af9f00080007000402420085824a009a
:1010700006034b0087834b00dfff07000802be001a
:101080000a03be00000006002fb29700bfb297000f
:101090004fb39700dfb3970000000600881f780069
:1010a00018002000881f780089ff07008f87e9005b
:1010b0004f04780000000600801feb0084ff07004b
:1010c0008f87e90000000600889fbe008a9fbe004f
:1010d000e00f5000e08f5800e00f5900e08f5900fa
:1010e0000c003d006044b8006055b800000054009a
:1010f00081805c0002015d0083815d00180020009a
:101100001500070008003d00180007000004eb0070
:10111000050037000004eb000f00070002003d004f
:101120001200070018002000dcff07000800e000a4
:10113000060032006022b8006033b80000005200a0
:1011400081805a0002015b0083815b004f05be0075
:101150004f04be0000000600e00f5200e08f5a006e
:10116000e00f5b00e08f5b00000006006044b80009
:101170006055b8000402540085825c0006035d00df
:1011800087835d0000000600889fbe008a9fbe0026
:101190008c1f7800e00f5000e08f5800e00f5900de
:1011a000e08f59000d003d006044b8006055b80064
:1011b0000000540081805c0002015d0083815d00bd
:1011c0001c0020000820e10009a8e1000ab0e100ad
:1011d0000bb8e1000d003d00080037000006eb00f1
:1011e000e00f5200e08f5a00e00f5b00e08f5b00e1
:1011f00006003d006044b8006055b8000402540089
:1012000085825c0006035d0087835d00aaff0700fe
:101210000c00e000060032006022b8006033b80025
:101220000000520081805a0002015b0083815b0054
:101230004f0678004f05be004f04be0000000600b8
:10124000889fbe008a9fbe008c1f78000006eb00be
:10125000e00f5000e08f5800e00f5900e08f590078
:1012600007003d006044b8006055b800000054001d
:1012700081805c0002015d0083815d001c00200014
:10128000e00f5200e08f5a00e00f5b00e08f5b0040
:1012900007003d006044b8006055b80004025400e7
:1012a00085825c0006035d0087835d000c00a20060
:1012b0001c0007000c00e000060032006022b800ad
:1012c0006033b8000000520081805a0002015b00c8
:1012d00083815b004f0678004f05be004f04be00bf
:1012e000000006000200be006450e1000500360068
:1012f0006420e100020036000968a30001003a0002
:101300000800be000160a0004f0678004f05be0037
:101310004f04be0000000600f0ff2f00f1ff270081
:10132000f9ff3700889fbe008a9fbe008c9fbe00d9
:101330000404b8000506b8008904460060854e0024
:101340000606b8000a054600e0854e000706b8000c
:101350008b054600040eb800890446000a854e003d
:10136000e0854d00050eb8000a0546008b854e004d
:10137000060eb8008b0546000416b8000a054600a4
:101380008b854e000516b8008b054600041eb8007c
:101390008b0546000800be000a01be004f06be00d5
:1013a0004f05be004f04be00000006000465220089
:1013b0000300e00002003a00d36522000302780037
:1013c000831f7800841f7800801f7800811f7800b9
:1013d000821f7800e0652200801f7800606a22008a
:1013e00001000700350007000000fa00688157007f
:1013f000cfb89700da0007000080fa00000006006e
:101400008001780002003700b15978000201e9003c
:101410000200e000fcff3a000000060080007800b7
:101420003104e000feff3a000080ea000080400046
:10143000000006000001e9000080eb00e50f51000c
:1014400005003e0002014100806f220002014000c1
:101450001200780001097800000006008000e90011
:10146000e58f500010003e0081804000826f220016
:1014700081004100910078000100e00002003a0084
:101480001000200011000700e18f4000080032002a
:101490000001eb00e18f5000060032000100010066
:1014a0000001eb00030037000081eb000100370072
:1014b0000101780002007800000006001000200002
:1014c000e6ff07001000200000000700000478007d
:1014d0000200070008007800eafc07000000060090
:1014e000889fbe008a9fbe000084fb00d1c6b30067
:1014f000814f5000200036004b06200011000900eb
:101500000b84d80081057800720040004200dd00a5
:10151000ea532200000045000200200003f02300ef
:101520001000be007c0a07000002be00a9002000d7
:10153000110009008985d80080057800e9854500fb
:10154000c25ddd008b0545001b01be000400be002e
:10155000710a07000002be00110009000984d800ca
:10156000010478004244dd00080545001a01be0070
:101570000400be0018003700ea4f5000100036008b
:10158000aa002000110009000a84d8000105780093
:10159000690440004244dd00e9532200088444000d
:1015a0000200200003f023001800be005a0a0700c2
:1015b0004255dd008a8444001901be000600370050
:1015c0004244dd00e05322000804400002002000f5
:1015d00003f023001800be004f0a07004f05be00ad
:1015e0004f04be0000000600889fbe008a1f7800de
:1015f000d1c6b3000004e00025003d000040ea0031
:101600000004fb00814f50000e0034004206200011
:10161000110009000204d800a900200011000900ef
:101620008900d800e9004000c208dd00ea5322002a
:10163000810045001101be00502c8100612c810009
:1016400023003700ea4f50000e003400a2002000b3
:10165000110009000204d80001017800690040006f
:101660004200dd00e1532200008040004211dd0015
:10167000828040001101be001000be00260a070053
:101680002b0037004244dd00e053220026003700e3
:101690000004fb00814f5000170034004206200078
:1016a000110009000204d800a9002000110009005f
:1016b0008900d800e9004000c208dd00aa502200dd
:1016c000810045001101be00b02a8100c12a8100bd
:1016d000110a07000002be00110009000904d80029
:1016e000010478004244dd00080545001a01be00ef
:1016f0000400be00e1ff3700ea4f5000080034004c
:10170000a2002000110009000204d80001017800a5
:10171000690040004200dd00a1502200d2ff3700e6
:101720004244dd00a0502200080440001800be0022
:101730004f0578004f04be0000000600d001900065
:10174000028151004240a9000300340010017800da
:10175000014978000208e800010078000000060056
:10176000af02b000889fbe008a9fbe008c9fbe0063
:101770008e1f780000077800a1af9f00f2af9f0096
:101780006055b8000000eb00c0b79f009f0837000d
:10179000afa897008100e800a1af9f0051c2b3003d
:1017a000814f500003003a00afa997000000eb0002
:1017b00013003700be0090000000fb000168a3008a
:1017c000070032004fb19700800078000e007800cb
:1017d000daff07000000e00005003a008b08370040
:1017e0008e00780095080700e10f4000870832005e
:1017f0004fb197000201e800c2b79f00830837008d
:101800008300780033417800b4c2b300844f5100a4
:101810001300320007003c006b425200844f51001d
:101820000d00320063424200844f510012003a0022
:101830000d003700d4c2b300844f510004003200c1
:1018400063424200844f51000b003a000800370009
:101850000030a000eaff37000000a000e8ff3700da
:101860000010a000e6ff370000b0a000e4ff370042
:101870000020a000e2ff37000018a30001003200a2
:101880000000a1000038a300010032000020a100e8
:101890008201fb000303b100e98f51000e003e00fe
:1018a000010178008001eb0093b79f00ea1ab900ac
:1018b000b201fb000303b100848141008200780083
:1018c0001202fb000403b100e90f5200f7ff3600db
:1018d00093b79f000a0037000002eb0094b79f0007
:1018e000a3c2b300834f510005003a00ffaa97003e
:1018f00045017800f5af9f0092b79f008100e80096
:10190000e2c2b300914f110019003a0000e0a000bc
:10191000a0b79f00a0c2b300d14f10000400320056
:10192000010078008001eb0083b79f0009003700b9
:101930007faa9700c4027800f4af9f0085b79f008c
:101940008100e800afb197000e003700ea1ab90035
:1019500084014100800078003001fb000203b100e7
:10196000e90f5100f9ff360083b79f00f5ff3700fc
:1019700000c0a000a0b79f000000eb0080b79f0050
:10198000f0ff370031407800a1af9f0072c6b3006e
:10199000824f50003500320018003c00a3b79f0072
:1019a00031c6b300814f5000d00032000e003c0021
:1019b000fcc05000814f50004200320006003c0045
:1019c0000004e0001608320081c0e900814f500099
:1019d000e0003a003300370081c5b300814f50006a
:1019e000dc003a004400370051c6b300814f50007c
:1019f0002100320026003c002100370002c7b3005e
:101a0000824f50003b0032000b003c00644151000b
:101a1000824f50001c003200a3b79f00f1c6b300f4
:101a2000814f50002e003200e6c05000814f500020
:101a3000c8003a0012003700a3b79f0051c7b30097
:101a4000814f5000c8003200e3c04000814f500079
:101a500004003200e5c05000814f5000bd003a0044
:101a60002d003700a0cf9f0027003700a3b79f00ad
:101a7000a0cf9f0017003700a0cf9f000d003700b8
:101a8000a0cf9f00bc0037000340a000bdff37007f
:101a9000a0cf9f00afb1970003a0a000a3b79f0005
:101aa000b5003700a0cf9f002fb297000450a000d0
:101ab000a4b79f00afb297000580a000a5b79f0014
:101ac000ad003700a0cf9f002fb097000050a000be
:101ad000a0b79f00afb097000190a000a50037000d
:101ae000a0cf9f002fb197000260a000a2b79f0077
:101af000a1003700a3b79f00a0cf9f00afb1970010
:101b00000350a000a3b79f002fb297000470a0005d
:101b1000a4b79f0098003700a0cf9f00ffaa9700ae
:101b200045007800f5af9f00000678000000e00057
:101b300001003a004c5922008c0078000000eb00b4
:101b4000010037000000e800008140001204e000be
:101b5000fcff3a00800678000fb097000000e0001c
:101b6000030032008d0f5000010031008006780024
:101b70000004eb009fb097008d8f500001003600ed
:101b80000d8450002fb19700e804610035003a0041
:101b9000acb79f00bdb79f000a06be00cfb5970047
:101ba000110037003e0090000068a30007003200db
:101bb0000b017800010220000e007800dffe070014
:101bc0000000e00006003a00060037008e007800b2
:101bd0000002200099070700e10f400001003200d9
:101be0008b05e8000804e9000800e000edff3a007a
:101bf000cbb79f000c05be002fb69700bfb697006d
:101c00000084eb00aab79f00bbb79f001700370006
:101c10003e0090000068a300090032000c0078002c
:101c2000b000fb00000678000b0178000e00780081
:101c3000c2fe07000000e00008003a000c00370078
:101c40008c0078003100fb00010678008e007800df
:101c50007a070700e10f4000050032008b05e8001d
:101c600003003700aab79f00bbb79f00cfb597000e
:101c70000d0078008006e9000000e000e4ff3a0073
:101c8000cbb79f002fb59700bfb597000900e000c4
:101c90005e073200cfb49700110037003e0090007d
:101ca0000068a3000700320009017800010220004b
:101cb0000e007800a1fe07000000e00006003a00d8
:101cc000060037008e007800000220005b07070046
:101cd000e10f4000010032008904e8000804e90037
:101ce0000800e000edff3a0047073700ffa9970022
:101cf00043007800f3af9f00cf80de00c809de000c
:101d0000480add004801de0002017200a2cf9f00f8
:101d1000afb297000548a300080032000204e000bb
:101d200006003200e14f410004003200b2cf9f00b4
:101d3000c0cf9f002d00200002003700b0cf9f00d1
:101d40001d002000a0fc2f000f0040000006e8004e
:101d500081ff3700a0cf9f00acfc2f000f0646008c
:101d60001d0020007cff3700a0cf9f00afb0970080
:101d7000010cb300a1b79f00017020002fb19700a4
:101d800081006100700061000100e000de043200ab
:101d900002c8a300020032006300200083b79f0046
:101da0000000e000070032007faa97004401be0057
:101db0004400be00f4af9f008b0807000004be0083
:101dc00003003700ffaa97004504be00f5af9f004f
:101dd0006011b8000800be003c0807000000e000e9
:101de00004003d0009f0a2002fb097003000b300be
:101df000a0b79f000000eb00f0a79f006011b800a3
:101e00000800be00370807000000e0002400320090
:101e1000e2fc2f000f0141000800be00330807005c
:101e20007fa097000000e900e300b900a2002000b5
:101e3000110009000200d800f0a79f000000e00098
:101e400002003d000000e900f0a79f007fa6970078
:101e50000c40ea00e4fd07000801be002e08070060
:101e60000005be000200200003f823001708070049
:101e70000000e00002003d000c06e900070037000a
:101e800002002000031224000a00be00110807000f
:101e90000000e000020035000c06e800fca79f00ef
:101ea0007fa69700afb097000188a30007003a0013
:101eb0000198a300ac023200e40f46000300350095
:101ec0000fb19700820f5600630235008fb1970063
:101ed0000300e000050032002fb297000498a30031
:101ee000020032008301e90083b79f008fb29700a0
:101ef00080c0b300e88f520001003e000fe0970061
:101f0000a0cf9f006011b8000800be00f5070700d1
:101f10000000e00033003200afce97000d405600c5
:101f2000b1fd07000001be000800be00a5070700c4
:101f30000004be00e6fa0700e80707000001be0043
:101f40000800be00410707000200200003f0230044
:101f5000e00707000000e000050035000200200057
:101f600003f023000800be00390707000004be008c
:101f70000800be00d6fa07000d01fb008201e80050
:101f8000c219dd00c459220083014200b30f500082
:101f9000a38f580007003900d2cc2c00c3dc2300eb
:101fa0000800be00dc0707000004be000c06e800c5
:101fb0000b0037004211dd0002014200b20f500059
:101fc000a28f5800070031000200200003122400f5
:101fd0000800be00d00707000004be000c06e900a0
:101fe000fca79f0001a020002fb197008100610095
:101ff00000202000808f500026003a008fb197000b
:10200000ea8f510002003400a400200084b79f0032
:102010000800be00aefa0700070037008fb2970035
:102020008502e90085b79f00a20020000300200080
:102030000c00be0070fb07000006be00e00f500061
:10204000e08f580006003200a200200003002000ac
:1020500010080700e00f5000e08f5800efff32003b
:102060002fc897008000fb000fb19700810f51002f
:1020700008003d00024050005bfd07000001be006b
:102080000800be004f0707000004be008fe1970064
:10209000a3cf9f001fb29700650052008fb2970038
:1020a0000500500090b79f000500e00003003a00d3
:1020b0002fb0970000b8a300030032009fb0970034
:1020c0008100e90091b79f002fb197006300610084
:1020d000030032009fb197008301e90093b79f008e
:1020e0002fb297000428a300530032003e00900056
:1020f000610162000418a300180032000068a30008
:102100000a003200b10220000200e00001003200ab
:102110008180e8004fb197000e00780087fd07002e
:102120000000e00009003a003a003700b002200049
:102130000200e000010032000080e8008e0078001c
:102140003e060700e10f400032003200cfb2970098
:102150008502e800050678002f0037000200e00045
:102160002c0032000068a300070032004fb1970036
:10217000010220000e00780070fd07000000e00062
:1021800006003a00230037008e007800000220008d
:102190002a060700e10f40001e0032004fb09700f2
:1021a0000000e800000678001b0037003e009000a9
:1021b0000068a3000b0032000c017800010320002e
:1021c0000e007800f4b79f0085bf9f005bfd0700fd
:1021d0007fb297008fba97000000e0000a003a0033
:1021e0000a0037008e00780000032000f4b79f003b
:1021f00085bf9f00110607007fb297008fba970036
:10220000e10f4000010032000c06e8008904e900fb
:10221000030037004fb697000802be009fb4970036
:102220000900e000e1ff3c0099b79f00ccb79f0098
:102230000404be004f003700afb097000138a30080
:102240001c003a004fb69700d8af9f00e9af9f003f
:102250009fb49700110037003e0090000068a30073
:10226000070032000c017800010220000e00780007
:1022700032fd07000000e00006003a0006003700cb
:102280008e00780000022000ec050700e10f4000fe
:10229000010032000c06e8008904e9000900e000b2
:1022a000edff3c0099b79f00ccb79f005fac970053
:1022b000efac97003e009000afb1970061816100e4
:1022c0000318a300180032000068a3000a003200bf
:1022d000b10220000200e000010032008180e8002d
:1022e0004fb197000e00780014fd07000000e000d9
:1022f00009003a001f003700b00220000200e00091
:10230000010032000080e8008e007800cb05070055
:10231000e10f4000170032004fb297000402e800be
:10232000c4b79f00130037000200e0001100320024
:102330000068a300070032004fb19700010220009f
:102340000e007800fdfc07000000e00006003a00e7
:10235000080037008e00780000022000b705070053
:10236000e10f400003003200cfb297008502e80081
:10237000c5b79f000800be00d5f907000006be00e3
:102380003e019000c0592200afc997008300fb00b6
:102390000268a3000d003200c208dd000100400009
:1023a0001001be000c00be0093fa070001032000dc
:1023b000808040004fb197000e007800dffc0700de
:1023c0000000e0000d003a000f003700c208dd00f9
:1023d000010040001001be000c00be0086fa07009c
:1023e00002032000000141008e0078000200780006
:1023f00092050700e10f4000030032004fb2970042
:102400000402e800c4b79f00afca97000500fb00b4
:102410004200dd00c1592200008040001001be00d2
:102420000c00be001b0707000006be000fb097009f
:102430000000e00003003a00afb0970001b8a3002d
:10244000660032003e0090000068a30007003200e2
:102450004fb19700e10220000e007800b7fc0700a2
:102460000000e00006003a00080037008e00780007
:10247000e002200071050700e10f40000300320078
:102480004fb197000201e800c2b79f002fcc970020
:10249000cfb4970033003700afb197000398a30083
:1024a00008003200e00f5600e08f5e0005003a00a1
:1024b000c9b79f000042eb00a4cf9f000004eb00cf
:1024c000430037003e019000c05922008100fb000c
:1024d0000268a3000d003200c208dd0001004000c8
:1024e0001001be000c00be0043fa070001032000eb
:1024f00080804000090178000e0078008ffc070002
:102500000000e0000d003a000d003700c208dd00b9
:10251000010040001001be000c00be0036fa0700aa
:1025200002032000000141008e00780002007800c4
:1025300042050700e10f4000010032008904e80075
:10254000afca97000500fb004200dd00c159220020
:10255000008040001001be000c00be00cd06070048
:102560000006be002fc897008040e900a1cf9f0061
:102570000004e000c8ff3a00c9b79f000804fb0050
:102580000fb0970008045000110037003e00900083
:102590000068a30007003200090178000103200051
:1025a0000e00780065fc07000000e00006003a001d
:1025b000060037008e007800000320001f0507008a
:1025c000e10f4000010032008904e8000804e9003e
:1025d0000800e000edff3a00c9b79f003e00900000
:1025e000afb097000158a300120032000068a300aa
:1025f000070032004fb19700510420000e00780010
:102600004efc07000000e00006003a001a00370008
:102610008e0078005004200008050700e10f4000fc
:10262000150032004fb197000201e800c2b79f00c9
:10263000110037000068a300070032004fb1970077
:10264000510620000e0078003cfc07000000e0006e
:1026500006003a00080037008e007800500620007f
:10266000f6040700e10f400003003200cfb19700ed
:102670008301e800c3b79f00ffa097003e009000d1
:102680000100e00014003d008100ea00f1a79f0076
:102690000068a300070032004fb19700d10220006c
:1026a0000e00780025fc07000000e00006003a005c
:1026b0001a0037008e007800d0022000df040700e7
:1026c000e10f4000150032004fb297000402e8000d
:1026d000c4b79f00110037000068a3000700320054
:1026e0004fb19700b10220000e00780013fc0700e4
:1026f0000000e00006003a00080037008e00780075
:10270000b0022000cd040700e10f400003003200ba
:10271000cfb297008502e800c5b79f00be009000c9
:102720007fa097000168a3000b003200a2002000e8
:10273000110009000200d800010320008080400041
:102740004fb197000e007800fcfb07000000e0008e
:1027500009003a000b003700a20020001100090018
:102760000200d8000003b0008e007800b304070018
:10277000e10f4000030032004fb097000000e80076
:10278000c0b79f00be0090007fa097000168a30023
:102790000a003200a2002000110009000200d80047
:1027a0000103b0004fb197000e007800e3fb070073
:1027b0000000e0000a003a000c003700a2002000f0
:1027c000110009000200d8000003200001004000b1
:1027d0008e00780099040700e10f400003003200ea
:1027e000cfb097008100e800c1b79f002fb19700dc
:1027f0000238a300850432009fb197000300e00077
:102800008204340003047800cfb497003e009000a7
:102810000068a300070032000901780001022000cf
:102820000e007800c5fb07000000e00006003a003b
:10283000060037008e007800000220007f040700a9
:10284000e10f4000010032008904e8000804e900bb
:10285000eeff3a006c0437000c00e00004003d007d
:102860000c86ea000fb297000c02420084b79f006a
:102870000800be0096f80700d0af9f00e1af9f00b0
:10288000815922000040eb0007003700e48040003f
:102890005faa9700efaa9700b10f5200a18f5a00cc
:1028a000030039000040e800ea4f5000f7ff3a000b
:1028b0000000fb008fb297008082520085b79f0016
:1028c000ec8f520006003c000540780004fb070036
:1028d0000001be000800be00dd0407000004be00c9
:1028e0000fe0970040fb07000006be005fa89700be
:1028f000efa89700790507000001be000800be00a0
:10290000d20407000001be000c00be0082050700d3
:102910006ff807000006be0008003700a200200084
:10292000030020000c00be0033f907000006be00c3
:102930000fb097000000e90080b79f008fb09700ac
:102940000100e00011003200a2002000030020007e
:102950000c00be00cf050700e00f5000e08f5800cc
:10296000eeff3200090037000fb19700ec0f510065
:1029700006003c0002407800d9fa07000001be00c2
:102980000800be00b20407000004be007fa6970046
:10299000e90f56000c003c006011b8000800be00b2
:1029a000500507000000e0001b0032000800be00d8
:1029b00047f80700e00f5000e08f580016003a007b
:1029c000e10f560014003400f2052700930824009c
:1029d0000a00be003d0507000000e00002003d00c7
:1029e000690656000100370068065600fca79f00e4
:1029f0006fc89700fcfa07000005be000001be008a
:102a00000800be00ef04070031f807000006be0012
:102a10006044b8000a0037000800be002cf8070028
:102a20000006be002d0507000001be000800be0024
:102a3000860407000004be000000eb00f0a79f0022
:102a4000c159220010c0b30005003700e4804000e7
:102a5000b10f5600a18f5e00030039000040e8006e
:102a6000ea4f5000f9ff3a00a0cf9f00ffa0970067
:102a70009fb19700818051000fb297008480500071
:102a80000000fb000080500090b79f0000802000f5
:102a9000afb2970000806200d0af9f0002003a0002
:102aa0000400e000030032001fb097000000e900be
:102ab00090b79f00afb097006380600003003200c2
:102ac0001fb197000201e90092b79f00afb19700d4
:102ad0000328a3005e003200618161000318a30097
:102ae000190032003e0090000068a3000a00320086
:102af000b10220000200e000010032008180e80005
:102b00004fb197000e0078000cfb07000000e000ba
:102b100009003a0043003700b00220000200e00044
:102b2000010032000080e8008e007800c303070037
:102b3000e10f40003b0032004fb297000402e80072
:102b4000c4b79f00370037000200e00035003200b4
:102b50003e0090000068a300070032004fb19700cc
:102b6000010220000e007800f4fa07000000e000e7
:102b700006003a002b0037008e007800000220008b
:102b8000ae030700e10f400026003200cfb29700ed
:102b90008502e800c5b79f00220037003e00900084
:102ba0000068a3000f0032000d017800010320002f
:102bb0000e007800f4b79f0085bf9f00d6b79f0036
:102bc000e7b79f00ddfa07007fb297008fba970042
:102bd0005fb39700efb397000000e0000e003a00eb
:102be0000e0037008e00780000032000f4b79f002d
:102bf00085bf9f00d6b79f00e7b79f008f030700f0
:102c00007fb297008fba97005fb39700efb397003a
:102c1000e10f4000010032008d06e8008904e90060
:102c2000040037000802be009fb497000c03be00ea
:102c3000cfb697000900e000d8ff3c0099b79f008d
:102c4000cdb79f000404be000606be007c0037001e
:102c50002fb097000038a30020003a00b8af9f00c3
:102c6000c9af9f009fb497008caf9f009daf9f009e
:102c7000cfb69700110037003e0090000068a30017
:102c8000070032000d017800010220000e007800dc
:102c9000aafa07000000e00006003a00060037002c
:102ca0008e0078000002200064030700e10f40005e
:102cb000010032008d06e8008904e9000900e00007
:102cc000edff3c0099b79f00cdb79f003fac970048
:102cd000cfac97000fae97009fae9700afb29700b2
:102ce000618162000518a300190032003e009000c7
:102cf0000068a3000a003200b10220000200e000d8
:102d0000010032008180e8004fb197000e0078008a
:102d10008afa07000000e00009003a004800370086
:102d2000b00220000200e000010032000080e80054
:102d30008e00780041030700e10f400040003200a0
:102d40004fb097000000e800c0b79f003c0037007c
:102d50000200e0003a0032003e0090000068a3004c
:102d6000070032004fb19700010220000e007800ea
:102d700072fa07000000e00006003a003000370059
:102d80008e007800000220002c030700e10f4000b5
:102d90002b003200cfb097008100e800c1b79f0040
:102da000270037003e019000c15922000000fb00bf
:102db0000268a300100032004200dd0000804000e5
:102dc0001001be000c00be000bf80700a20020009e
:102dd00003002000af0407000103200080804000b2
:102de0004fb197000e00780054fa07000000e00091
:102df00010003a00120037004200dd000080400061
:102e00001001be000c00be00fbf70700a20020006e
:102e1000030020009f04070002032000000141007e
:102e20008e0078000200780004030700e10f4000e4
:102e3000030032004fb197000201e800c2b79f00c3
:102e4000afc897000140e900a0cf9f000104e00057
:102e5000d4ff3a000806be00cfb497001300370035
:102e60003e0090000068a3000700320009017800ce
:102e7000010320000e00780030fa07000000e00097
:102e800006003a00060037008e007800000320009c
:102e9000ea020700e10f4000010032008904e80067
:102ea0007fa097000000e900f0a79f007fa0970097
:102eb0000000e000eaff3c00c9b79f000c04be0020
:102ec0008fb19700e88f51000300340080c0b30039
:102ed000a0cf9f00020037000fe29700a4cf9f0011
:102ee0002fc897008000fb008fb2970081805200ae
:102ef00081b79f000004e00003003a005fa897003c
:102f00000000e000120032003e0090000068a300c4
:102f1000070032004fb19700e10220000e00780058
:102f200006fa07000000e00006003a00080037003b
:102f30008e007800e0022000c0020700e10f400090
:102f400003003200cfb097008100e800c1b79f00b6
:102f50002fc89700a4f907000001be000800be00ba
:102f6000ed030700daf607000006be004fb4970035
:102f70002e0037003e019000c05922008100fb0066
:102f80000268a30010003200c208dd00010040000a
:102f90001001be000c00be0097f70700a200200041
:102fa000030020003b040700010320008080400054
:102fb000080178000e007800e0f907000000e0004a
:102fc00010003a0010003700c208dd000100400088
:102fd0001001be000c00be0087f70700a200200011
:102fe000030020002b040700020320000001410021
:102ff0008e0078000200780090020700e10f400088
:10300000010032000804e8002fc997000200fb000d
:103010004200dd00c1592200008040001001be00c6
:103020000c00be001b0407000006be002fc897005e
:103030008040e900a1cf9f000004e000cdff3a00ee
:10304000c8b79f000fb49700cfb4970011003700a6
:103050003e0090000068a3000700320009017800dc
:10306000010320000e007800b4f907000000e00022
:1030700006003a00060037008e00780000032000aa
:103080006e020700e10f4000010032008904e800f1
:103090000804e9000800e000edff3a00c9b79f000e
:1030a000afb197000338a300580232001fb2970057
:1030b0000400e00055023400040478003e00900053
:1030c0000068a30007003200090178000102200017
:1030d0000e00780099f907000000e00006003a00b1
:1030e000060037008e00780000022000530207001f
:1030f000e10f4000010032008904e8000804e90003
:10310000eeff3a0040023700afb09700010cb2006a
:1031100013003a000000e00004003200ffaa97000c
:103120004506be00f5af9f00040037007fa897005a
:1031300040067800f0af9f00cfe6de00e00f5600bb
:10314000e08f5e0010003d00afb097003100b3008b
:10315000a1b79f0060061600e0861e000a00370037
:103160000000e000040032007fa997004206be0084
:10317000f2af9f0004003700ffa9970043067800d4
:10318000f3af9f008006eb000fb297000400e00051
:1031900006003a000c80760000f0a7000000ea006c
:1031a0000000e9004f00de0080b79f00afb297003b
:1031b000050cb200b5af9f0000042000808f5200c4
:1031c0002300320003003c000500e000080032004c
:1031d0002d00370000082000bfa89700808f500006
:1031e0000d003200000c2000808f500026003a00b5
:1031f000c159220010c0b300e4804000b10f560056
:10320000a18f5e001f0039000040e800ea4f500027
:10321000f9ff3a001b00370010c0b3000201200084
:1032200003002000820f5600838f5e0015003900d6
:10323000441add00cc11de00830172004411dd0070
:103240000040e800e84f5000f6ff3a000d0037005c
:1032500010c0b3008200200003002000820f56003f
:10326000838f5e0007003900c31add00cd11de0038
:10327000838172004311dd000040e800eb4f5000f5
:10328000f6ff3a00a0cf9f00afc897000100fb00f7
:103290000fb19700820f500002003d00a2cf9f00a7
:1032a000040037008fb19700808f510001003d006e
:1032b00080b79f001fb297000400e00005003200b5
:1032c000afb2970063806200020032000402e9009e
:1032d00094b79f002fb0970000e8a30009003200c8
:1032e0009fb097000fb19700828f50000300340009
:1032f0008280500091b79f00020037008001eb00f0
:1033000093b79f00418c20002fb29700810062008c
:1033100000842000808f500006003a009fb2970082
:103320000500e000110032008502e90095b79f001a
:103330000e003700018c20002fb097008100600044
:1033400000882000808f500008003a009fb097004e
:10335000e28f5000030034008180e90091b79f00a4
:10336000020037000001eb0092b79f00afc9970041
:103370000300fb000002eb00d4af9f009fb2970058
:10338000808f52000200340000805200d0af9f00b6
:103390002fb097000028a3007d003200610160007b
:1033a0000018a300190032003e0090000068a3003e
:1033b0000a003200b10220000200e00001003200e9
:1033c0008180e8004fb197000e007800dbf807001d
:1033d0000000e00009003a0053003700b00220006e
:1033e0000200e000010032000080e8008e0078005a
:1033f00092010700e10f40004b003200cfb0970070
:103400008100e800c1b79f00470037000200e000dc
:10341000130032003e0090000068a3000700320055
:103420004fb19700010220000e007800c3f807009a
:103430000000e00006003a003b0037008e007800f4
:10344000000220007d010700e10f4000360032003d
:103450004fb197000201e800c2b79f003200370069
:10346000018c2000afb197008180610000882000ae
:10347000808f50002c003a003e0090000068a300ae
:10348000070032004fb19700010320000e007800c2
:10349000aaf807000000e00006003a000800370024
:1034a0008e0078000003200064010700e10f400057
:1034b000030032004fb297000402e800c4b79f0037
:1034c0003e0090002fb197000202b2000068a300f6
:1034d0000a003200810720000200e00001003200f3
:1034e000810520004fb197000e00780093f8070087
:1034f0000000e00009003a000b00370080072000c0
:103500000200e00001003200800520008e007800fb
:103510004a010700e10f400003003200cfb29700dc
:103520008502e800c5b79f005fa897000000e00093
:10353000ac00320000047800cfb497003e00900049
:103540000068a30007003200090178000103200091
:103550000e00780079f807000000e00006003a004d
:10356000060037008e0078000003200033010700ba
:10357000e10f4000010032008904e8000804e9007e
:10358000eeff3a00d8af9f00c9b79f009500370003
:10359000dfa897000100e000190032002fb197006a
:1035a0000238a30016003a0001047800cfb4970057
:1035b0003e0090000068a300070032000901780077
:1035c000010220000e0078005cf807000000e00017
:1035d00006003a00060037008e0078000002200046
:1035e00016010700e10f4000010032008904e800e5
:1035f0000804e900eeff3a00d8af9f00c9b79f006a
:10360000afb19700618161000318a3001900320077
:103610003e0090000068a3000a003200b1022000c2
:103620000200e000010032008180e8004fb1970005
:103630000e00780041f807000000e00009003a00a1
:1036400020003700b00220000200e000010032003c
:103650000080e8008e007800f8000700e10f4000cd
:10366000180032004fb297000402e800c4b79f0070
:10367000140037000200e000120032003e0090000b
:103680000068a300070032004fb19700010220003c
:103690000e00780029f807000000e00006003a005c
:1036a000080037008e00780000022000e3000700c9
:1036b000e10f400003003200cfb297008502e8001e
:1036c000c5b79f00008c2000afb09700008060005d
:1036d00001842000810f500013003a003e0090004a
:1036e0000068a300070032004fb1970001032000db
:1036f0000e00780011f807000000e00006003a0014
:10370000380037008e00780000032000cb0007004f
:10371000e10f4000330032004fb197000201e80092
:10372000c2b79f002f00370001882000810f500092
:103730002c003a003e0090000068a3000700320011
:103740004fb19700010320000e007800fbf707003f
:103750000000e00006003a00080037008e00780004
:1037600000032000b5000700e10f40000300320015
:10377000cfb197008301e800c3b79f003e009000df
:103780002fb197000202b2000068a3000a003200c5
:10379000810720000200e0000100320081052000c6
:1037a0004fb197000e007800e4f707000000e0003a
:1037b00009003a000b003700800720000200e000fb
:1037c00001003200800520008e0078009b00070079
:1037d000e10f4000030032004fb297000402e800fe
:1037e000c4b79f008fb297000502e900e320b9003b
:1037f00090b79f004222dd00c05922000002420023
:103800008aaf9f009baf9f0004047800bfac970075
:103810005e0037008fb197008301e90083b79f00f6
:1038200000042000808f54003700320003003c0069
:103830000900e000070032003d00370000082000ca
:10384000808f54001e003200000c2000808f540036
:1038500037003a002fb297000400e0000300350063
:10386000afb297000548a3000c0032001805be0057
:103870000a01be000c00be005ff50700a0cf9f004c
:103880000000fb00cf80de000a01be00040207003a
:103890000006560081865e00070037001801780098
:1038a000110009000286d800a200200011000900c2
:1038b0000280d800a1cf9f002fc897001a003700c0
:1038c00030582200afb097000158a3000100320029
:1038d00020572200c1592200810054000c01be0073
:1038e0008100e900030033008301d1000281d3008d
:1038f000fbff37006f0161000201400012417800b8
:10390000a2cf9f000a0037000c00be001fb1970035
:103910000201e900030033008100d1000080d300e0
:10392000fbff3700674060000043b000a0cf9f005e
:10393000be009000afc997000300fb000168a30020
:10394000070032004fb19700800078000e00780029
:103950007af707000000e00005003a000700370092
:103960008e00780035000700e10f400003003200b0
:103970004fb297000402e800c4b79f001fb0970041
:103980006300500090b79f00640454008fb097000c
:103990000100e0009fff3a000fad97009fad970038
:1039a0002fb197000238a30018003200dfa997005a
:1039b0000300e0001500340003047800cfb4970042
:1039c0003e0090000068a300070032000901780063
:1039d000010220000e00780058f707000000e00008
:1039e00006003a00060037008e0078000002200032
:1039f00012000700e10f4000010032008904e800d6
:103a00000804e900eeff3a00c9b79f002faa97000b
:103a100014407800a0cf9f000004e0005cf73a005b
:103a20004fb097004f0778004f06be004f05be000d
:103a30004f04be00af02b10000000600889fbe0028
:103a400001047800b80090008084eb000118a30006
:103a50003a003200180190000198a30002003a00d9
:103a60000200e00035003a000190a0003104980007
:103a700080047800f90fb2000200e00002003a0072
:103a800028009000000c7800ea8f540005003a00ee
:103a90000178a30003003a0088007800d0002000dd
:103aa000e6ff070018009000d8009000810f50003a
:103ab0000b0032000000e8001004980018007800a5
:103ac00009487800000ce80011c0b30040702200e3
:103ad00001487800ea8f540018003a0005003700ca
:103ae00088007800094078001700070080047800fb
:103af00012003700380090000088a3000f00320049
:103b000018019000a80090004800900065f307009d
:103b100098009000810f500004003200380090009f
:103b20000003b300300498008084eb000000eb0039
:103b30001004980028009000000c7800090078001c
:103b40004f04be00000006000200fa00889fbe007d
:103b5000a0ff9f0001047800380090000068a300d7
:103b600033003a00e200600005003a000003b300b1
:103b700030049800110498000080eb002e003700fc
:103b8000d80490000900e00006003a00120020006e
:103b9000e68057004800900042f30700190498009f
:103ba00023003700a80090000100e00008003a0060
:103bb0007170220021049800010c7800210020007f
:103bc00051049800110498000030a00030049800bf
:103bd00018019000a80090004800900031f3070001
:103be000280090008080eb0011049800aff8970047
:103bf00001487800000ce8002ff89700ea4f5000c9
:103c00000b003a00380090000088a3000800320042
:103c100018019000a80090004800900021f30700d0
:103c20000000eb0010049800a8009000010c780040
:103c3000aff897000100fb004f04be000080fa00bf
:103c40000000060000c0da000000060003f0a20039
:103c5000889fbe008a9fbe008c1f7800a6000700c8
:103c6000a0f533006450e1004f0032006420e10011
:103c70005200320003826c0007003b000905d000af
:103c80000306d000820f54000c065d0002003900cc
:103c90000200320089017800030678008582550011
:103ca00004003d000003fd008103fd008502ea00e1
:103cb0008b854200840f720002003b006000100000
:103cc000e08018006011b8000005eb007a28e100e0
:103cd0000a00390006007800c75ddd00f707b20072
:103ce000878075002d003700828171000a017800fd
:103cf000610560008180d1000080d3008502e90069
:103d0000f9ff3b00060440008784480002003b00a6
:103d100060041400e0841c000988a300070032003e
:103d20008a81710082817100610164008904d1007f
:103d30000884d3008b05e800170037000978a3003a
:103d400013003a000b00e000130034008b05e9007b
:103d50000804440089844c000a4474000978a300d4
:103d60000d003a000b00e000070034008b05e9006d
:103d70000804440089844c0001003a000b00200034
:103d80000978a300f7ff32000001eb0002003700c2
:103d9000828171000a017800a7f307000cf0a700e8
:103da00001f0a00058f537006420e10002003a005d
:103db000838f6c0058f533000801be000200be007e
:103dc00051f53700889fbe008a9fbe008c1f780087
:103dd0004900070043f5330003866c006450e1009e
:103de0002e0032006420e100330032006150e10017
:103df0002f0032006120e10031003200858555003e
:103e0000eb07b0000900200008042000050037007f
:103e10000804440089844c000a0031000603430072
:103e200087834b000001530081815b00f8ff330062
:103e30000203be000800a0000804440089844c006e
:103e4000f6ff3900c639dd0083017300010032003e
:103e5000130020008904d1000884d3000998a3002e
:103e6000050032000800a7000300a0008904d1006b
:103e70000884d3008b05e8008904d1000884d300ae
:103e80000001eb000281d2006bf3070001f0a100fa
:103e90000cf0a70001f0a0001bf537006420e10042
:103ea0001df532000801be000200be00f7ff37001a
:103eb0006120e10018f532006000b800f3ff370020
:103ec0000000200001f82700f0ff37001400200058
:103ed000c6003700f4ff2f00c40037006011b8009f
:103ee00026f3370004002000c000370072000700ee
:103ef00005097800000006000004be0074f3070006
:103f00000003be000405be000200be0070f30700ff
:103f1000844f750000000600889fbe008a9fbe0087
:103f20008c1f7800f4ff0700eef4330003866c006a
:103f30006450e100240032006420e10027003200d8
:103f40006150e100220032006120e10021003200d6
:103f50008b854200eb07b1000134b800003ab8008d
:103f60000804420089844a00013ab8000030b800d1
:103f70008880400009014a0004003300000040002e
:103f800081804800020149008b05e900c909dd0074
:103f9000830170000100320013002000c814de000d
:103fa0004814dd004709de001200b200c808de0038
:103fb0000884700020f3070001f0a1000cf0a700b6
:103fc00001f0a000d0f437006120e100d2f432000b
:103fd0000801be000200be00f7ff37006150e1009b
:103fe000fcff3a00ccf437001400fa00889fbe00b2
:103ff0008a9fbe008c9fbe000005be000206be0068
:10400000680047000c90be000a90be003700070011
:104010006400e1001a00320016003e006100e10079
:104020001a0032006e049000fe0490000e0b900007
:104030009e0b90006011b8009e0590000b38b100f7
:10404000d501200082817100610164008703d100e5
:104050000683d3008984d3000884d3008502e90055
:10406000f8ff3a00f4f207000df0a70001f0a000fd
:1040700059003700f1ff2700f0ff2f0056003700ee
:1040800001f8270000002000f7ff37006000b800ab
:10409000f5ff370058f307000400be0000000600db
:1040a000020ab900001bb9000200b80081004200fa
:1040b00081004300000006000003be0004f3070077
:1040c0006220e100020032000600be00050005008b
:1040d000e507b100f107b20004f02300848070000e
:1040e00007f0a70001f0a000240005008000780080
:1040f0005002be005003be004439de00f700b2009b
:10410000f37f200003016100090032000218e10082
:1041100016003a00850172008301730083817300e9
:104120000008200015003a0040002000130037006e
:1041300085017200830173008381730005003a00da
:1041400004a8be0006a8be00100020000b00370027
:104150000201e9000402420085824a0006034b0086
:1041600087834b000748a300f9ff32000740a000f7
:1041700004a8be0006a8be00200020008000980011
:104180009200980000000600680447000294be00f8
:104190000094be00fc0447008694be008494be00d8
:1041a00009007800d1ff070008007800cfff070062
:1041b00099007800814f70000b003b000800be00a2
:1041c000250007004f00b10003003700f3ff270070
:1041d000f2ff2f006110b9004f06be004f05be0070
:1041e0004f04be000080fa0000000600889fbe0059
:1041f0008a9fbe00841f78003fff07004f007800b1
:1042000011003300f0ff2f00838f6c0006003b008d
:10421000040565000a00a7000800370009f0a600a1
:104220001000200008003700820f5400838f5c00cc
:10423000030039001000200001003e0000002000b3
:1042400009f0a7000000ea004f05be004f04be00c1
:104250000000e00000000600e48240001078a300a7
:1042600007003200640240001178a3003400be0051
:104270001401be00040032000330a7000000060055
:104280003500be001501be000330a000000006008e
:020000040000fa
:1042900000000000480600008c0c0000c81200005e
:1042a000f91800001a1f0000282500001f2b00002d
:1042b000fc300000ba360000563c0000ce41000041
:1042c0001d470000404c000033510000f555000030
:1042d000825a0000d75e0000f2620000cf66000044
:1042e0006d6a0000ca6d0000e2700000b573000046
:1042f00041760000847800007d7a0000297c00006f
:104300008a7d00009d7e0000627f0000d87f000053
:10431000ff7f0000d87f0000627f00009d7e0000cc
:104320008a7d0000297c00007d7a000084780000ee
:1043300041760000b5730000e2700000ca6d000015
:104340006d6a0000cf660000f2620000d75e0000d8
:10435000825a0000f555000033510000404c000027
:104360001d470000ce410000563c0000ba36000058
:10437000fc3000001f2b0000282500001a1f000041
:10438000f9180000c81200008c0c0000480600005c
:1043900000000000b8f9000074f3000038ed0000e0
:1043a00007e70000e6e00000d8da0000e1d40000f2
:1043b00004cf000046c90000aac3000032be0000be
:1043c000e3b80000c0b30000cdae00000baa0000af
:1043d0007ea5000029a100000e9d0000319900007b
:1043e00093950000369200001e8f00004b8c000059
:1043f000bf8900007c87000083850000d783000010
:1044000076820000638100009e800000288000000a
:1044100001800000288000009e8000006381000071
:1044200076820000d7830000838500007c8700002f
:10443000bf8900004b8c00001e8f000036920000e8
:1044400093950000319900000e9d000029a1000005
:104450007ea500000baa0000cdae0000c0b3000096
:10446000e3b8000032be0000aac3000046c9000045
:1044700004cf0000e1d40000d8da0000e6e000003c
:1044800007e7000038ed000074f30000b8f9000001
:020000040000fa
:104490000200fa00004f780032c0b30031c0b30010
:1044a0000040eb00c93b07001e4078000004e0001c
:1044b0000800320032c0b30031c0b30010c0b300f6
:1044c000c23b070032c0b30031c0b30020c0b3000c
:1044d000be3b07007475ef000080fa000000060084
:1044e0000200fa00004f780031c0b3000040eb003a
:1044f0004c3c07001e4078000004e000060032003b
:1045000031c0b30010c0b300463c070031c0b30057
:1045100020c0b300433c070010c0b30074f5b700df
:104520000080fa00000006000000fa000041eb00e5
:1045300031c0b30030c0b300a43b07000080fa00d4
:10454000000006000000fa0031c0b30030c0b30024
:10455000343c07000080fa00000006000200fa0068
:10456000000f7800f938070002e82300030020005c
:104570000040eb004b39070002092d0033002000fa
:1045800010c0b300473907000042eb008041eb0048
:1045900032c0b30031c0b3000040eb007a390700ed
:1045a000f1ff27000040eb008a4007000042eb00cb
:1045b0008041eb0032c0b30031c0b30010c0b30083
:1045c00071390700f1ff270010c0b30081400700d8
:1045d00017c0b3000043eb008040eb00c43327005a
:1045e00005002000024b2000030020000040eb00eb
:1045f0000d3e070017c0b3000043eb008040eb0006
:10460000447227000500200082892000030020005a
:1046100010c0b300043e07000042eb008041eb00f5
:1046200032c0b30031c0b30020c0b3005639070018
:10463000f1ff270020c0b300664007000042eb00f6
:104640008041eb000041eb0031c0b30030c0b3004b
:104650004d390700f1ff270030c0b3005d4007006f
:104660000042eb0033c0b30032c0b30031c0b3002e
:1046700040c0b300443907000000eb009f5707001b
:104680000000eb00e664070010c0b30080ff0700e5
:10469000a6380700400620007c6b0700a9ff070032
:1046a00040062000796b070041c0b30010c0b30082
:1046b000844007000080fa00000006000200fa00b3
:1046c00057d5bf00e44f500010003a00b257070022
:1046d0000040eb0073570700000f78001e007800c1
:1046e000d63f070010c0b3006e570700000f7800d8
:1046f0001e007800e23f070020c0b30069570700a2
:10470000000f78001e007800ee3f0700d964070014
:104710000040eb00b0640700000f78001e00780036
:104720000a40070010c0b300ab640700000f780018
:104730001e007800164007000080fa000000060006
:104740000200fa00000f780028d5bf000004e00046
:1047500003003a0066d5bf000004e0000400320008
:1047600010c0b3004aff07006fff070009003700c1
:1047700057d5bf00e44f500006003a0074d5bf0083
:104780000004a2000004e0000200320010c0b300e8
:0c47900053ff07000080fa000000060044
:020000040000fa
:10479c004400f800240e200024028800000290003f
:1047ac00900290008500980096ed26008500ca00c6
:1047bc000010cb001201c1000200cc009200980046
:1047cc008500ca000010cb001241c1000200cc00d1
:1047dc00a2009800100020004400f9000000060020
:020000040000fa
:10780000281500000000000006a600002815000052
:107810000100000006a6000028150000020000007c
:1078200006a60000281500000300000006a60000c0
:10783000281500000400000006a60000281500001e
:107840000500000006a60000000000000000000087
:1078500006a60000000000000000000006a60000d0
:10786000781500000000000006a600007815000052
:107870000100000006a600007815000002000000cc
:1078800006a60000781500000300000006a6000010
:10789000000000000000000006a60000000000003c
:1078a0000000000006a6000000000000000000002c
:1078b00006a60000000000000000000006a6000070
:1078c0005615000000000000dca500006615000051
:1078d00000000000dca50000000000000000000027
:1078e000dca500000000000000000000dca5000096
:1078f0000000000000000000dca500000000000007
:1079000000000000dca500000000000000000000f6
:10791000dca500000000000000000000dca5000065
:107920004e1500000000000006a600004e150000e5
:107930000100000006a6000000000000000000009a
:10794000dca500000000000000000000dca5000035
:107950000000000000000000dca5000000000000a6
:1079600000000000dca50000000000000000000096
:10797000dca500000000000000000000dca5000005
:1079800067150000ff00000006a6000000000000d0
:1079900000000000dca50000000000000000000066
:1079a000dca500000000000000000000dca50000d5
:1079b0000000000000000000dca500000000000046
:1079c00000000000dca50000000000000000000036
:1079d000dca500000000000000000000dca50000a5
:1079e00080150000000000005ea600008015000069
:1079f000010000005ea600008015000002000000eb
:107a00005ea6000080150000030000005ea60000d6
:107a100080150000040000005ea600008015000034
:107a2000050000005ea600008015000006000000b2
:107a30005ea6000080150000070000005ea60000a2
:107a400080150000080000005ea600008015000000
:107a5000090000005ea60000801500000a0000007a
:107a60005ea60000801500000b0000005ea600006e
:107a7000801500000c0000005ea6000080150000cc
:107a80000d0000005ea60000801500000e00000042
:107a90005ea60000801500000f0000005ea600003a
:107aa000101000000100000000000000e2a600002d
:107ab0001410000001000000b2a90000e2a60000be
:107ac0001610000001000000b2a90000e2a60000ac
:107ad0001c10000001000000b2a90000e2a6000096
:107ae0001e1000000100000000000000e2a60000df
:107af00022100000010000005aaa0000e2a60000c7
:107b000024100000010000005aaa0000e2a60000b4
:107b100026100000010000005aaa0000e2a60000a2
:107b2000281000000100000000000000e2a6000094
:107b30002c10000001000000b2a90000e2a6000025
:107b40002e10000001000000b2a90000e2a6000013
:107b50003410000001000000b2a90000e2a60000fd
:107b6000361000000100000000000000e2a6000046
:107b70003a100000010000005aaa0000e2a600002e
:107b80003c100000010000005aaa0000e2a600001c
:107b90003e100000010000005aaa0000e2a600000a
:107ba000401000000100000000000000e2a60000fc
:107bb0004410000001000000b2a90000e2a600008d
:107bc0004610000001000000b2a90000e2a600007b
:107bd0004c10000001000000b2a90000e2a6000065
:107be0004e1000000100000000000000e2a60000ae
:107bf00052100000010000005aaa0000e2a6000096
:107c000054100000010000005aaa0000e2a6000083
:107c100056100000010000005aaa0000e2a6000071
:107c2000581000000100000000000000e2a6000063
:107c30005c10000001000000eaa90000e2a60000bc
:107c40005e10000001000000eaa90000e2a60000aa
:107c50006410000001000000eaa90000e2a6000094
:107c6000661000000100000000000000e2a6000015
:107c70006a10000001000000eaa90000e2a600006e
:107c80006c10000001000000eaa90000e2a600005c
:107c90007210000001000000eaa90000e2a6000046
:107ca000741000000100000000000000e2a60000c7
:107cb0007810000001000000eaa90000e2a6000020
:107cc0007a10000001000000eaa90000e2a600000e
:107cd0008010000001000000eaa90000e2a60000f8
:107ce000821000000100000000000000e2a6000079
:107cf000861000000100000022aa0000e2a6000099
:107d0000881000000100000022aa0000e2a6000086
:107d10008e1000000100000022aa0000e2a6000070
:107d2000901000000100000000000000e2a600002a
:107d3000941000000100000092aa0000e2a60000da
:107d4000961000000100000092aa0000e2a60000c8
:107d5000981000000100000092aa0000e2a60000b6
:107d60009a1000000100000000000000e2a60000e0
:107d70009e1000000100000022aa0000e2a6000000
:107d8000a01000000100000022aa0000e2a60000ee
:107d9000a61000000100000022aa0000e2a60000d8
:107da000a81000000100000000000000e2a6000092
:107db000ac1000000100000092aa0000e2a6000042
:107dc000ae1000000100000092aa0000e2a6000030
:107dd000b01000000100000092aa0000e2a600001e
:107de000b21000000100000000000000e2a6000048
:107df000b61000000100000022aa0000e2a6000068
:107e0000b81000000100000022aa0000e2a6000055
:107e1000be1000000100000022aa0000e2a600003f
:107e2000c01000000100000000000000e2a60000f9
:107e3000c41000000100000092aa0000e2a60000a9
:107e4000c61000000100000092aa0000e2a6000097
:107e5000c81000000100000092aa0000e2a6000085
:107e6000001000000100000000000000e2a6000079
:107e700002100000010000007aa90000e2a6000044
:107e800004100000010000007aa90000e2a6000032
:107e900006100000010000007aa90000e2a6000020
:107ea000081000000100000000000000e2a6000031
:107eb0000a100000010000007aa90000e2a60000fc
:107ec0000c100000010000007aa90000e2a60000ea
:107ed0000e100000010000007aa90000e2a60000d8
:107ee000ca1000000100000000000000e2a600002f
:107ef000e013000001000000caaa0000e2a6000092
:107f0000e6130000020000000000000016a70000b9
:107f1000e613000000000000000000000000000068
:107f2000ce1000000100000000000000e2a60000ea
:107f3000e213000001000000caaa0000e2a600004f
:107f4000ea130000020000000000000016a7000075
:107f5000ea13000000000000000000000000000024
:107f6000d21000000100000000000000e2a60000a6
:107f7000e413000001000000caaa0000e2a600000d
:107f8000ee130000020000000000000016a7000031
:107f9000ee130000000000000000000000000000e0
:107fa000b42600000100000000000000e2a600006e
:107fb000b4260000010000005aaa0000e2a600005a
:107fc000b62600000100000000000000e2a600004c
:107fd000b6260000010000005aaa0000e2a6000038
:107fe000b82600000100000000000000e2a600002a
:107ff000b8260000010000005aaa0000e2a6000016
:10800000ba2600000100000000000000e2a6000007
:10801000ba2600000100000092aa0000e2a60000bb
:10802000bc2600000100000000000000e2a60000e5
:10803000bc2600000100000092aa0000e2a6000099
:10804000be2600000100000000000000e2a60000c3
:10805000be2600000100000092aa0000e2a6000077
:10806000c02600000100000000000000e2a60000a1
:10807000c026000001000000b2a90000e2a6000036
:10808000c22600000100000000000000e2a600007f
:10809000c226000001000000b2a90000e2a6000014
:1080a000c42600000100000000000000e2a600005d
:1080b000c426000001000000b2a90000e2a60000f2
:1080c000c62600000100000000000000e2a600003b
:1080d000c626000001000000eaa90000e2a6000098
:1080e000c82600000100000000000000e2a6000019
:1080f000c826000001000000eaa90000e2a6000076
:10810000ca2600000100000000000000e2a60000f6
:10811000ca26000001000000eaa90000e2a6000053
:10812000cc2600000100000000000000e2a60000d4
:10813000cc2600000100000022aa0000e2a60000f8
:10814000ce2600000100000000000000e2a60000b2
:10815000ce2600000100000022aa0000e2a60000d6
:10816000d02600000100000000000000e2a6000090
:10817000d02600000100000022aa0000e2a60000b4
:10818000f0d600000100000000000000e2a60000a0
:10819000f2d600000100000000000000e2a600008e
:1081a000f4d600000100000000000000e2a600007c
:1081b000f6d600000100000000000000e2a600006a
:1081c000fa130000020000000000000016a70000e3
:1081d000fa13000000000000000000000000000092
:1081e000571500000100000000000000b6a60000c6
:1081f000901300000100000000000000e2a6000053
:10820000921300000100000000000000e2a6000040
:10821000941300000100000000000000e2a600002e
:10822000961300000100000000000000e2a600001c
:10823000981300000100000000000000e2a600000a
:108240009a1300000100000000000000e2a60000f8
:10825000241500000100000000000000e2a600005c
:10826000261500000100000000000000e2a600004a
:108270009c1300000100000000000000e2a60000c6
:108280009e1300000100000000000000e2a60000b4
:10829000a01300000100000000000000e2a60000a2
:1082a000a21300000100000000000000e2a6000090
:1082b000a41300000100000000000000e2a600007e
:1082c00050150000020000000000000016a700008a
:1082d0005015000000000000000000000000000039
:1082e00000000000010000000000000002ab0000e0
:1082f00000000000010000000000000002ab0000d0
:1083000000000000010000000000000002ab0000bf
:1083100000000000010000000000000002ab0000af
:1083200000000000010000000000000002ab00009f
:1083300000000000010000000000000002ab00008f
:1083400000000000010000000000000002ab00007f
:1083500000000000010000000000000002ab00006f
:1083600000000000010000000000000002ab00005f
:1083700000000000010000000000000002ab00004f
:1083800000000000010000000000000002ab00003f
:1083900000000000010000000000000002ab00002f
:1083a00000000000010000000000000002ab00001f
:1083b00000000000010000000000000002ab00000f
:1083c00000000000010000000000000002ab0000ff
:1083d00000000000010000000000000002ab0000ef
:1083e00000000000010000000000000002ab0000df
:1083f00000000000010000000000000002ab0000cf
:1084000000000000010000000000000002ab0000be
:1084100000000000010000000000000002ab0000ae
:1084200000000000010000000000000002ab00009e
:1084300000000000010000000000000002ab00008e
:1084400000000000010000000000000002ab00007e
:1084500000000000010000000000000002ab00006e
:1084600000000000010000000000000002ab00005e
:1084700000000000010000000000000002ab00004e
:1084800000000000010000000000000002ab00003e
:1084900000000000010000000000000002ab00002e
