:020000040000FA
:06000000D0EF53F01200E6
:020006001200E6
:06000800E0EF51F01200D0
:02000E00000AE6
:020010000000EE
:02001200E1AC5F
:01001400FFEC
:0100150000EA
:08001800D8CFE4FFE0CFE4FFC4
:10002000E46EDACFE4FFE2CFDAFFE9CFE4FFEACF14
:10003000E4FFD9CFE4FFDACFE4FF5CC0E4FF5DC0AA
:10004000E4FF5EC0E4FF5FC0E4FFF6CFE4FFF7CF5C
:10005000E4FFF5CFE4FFF3CFE4FFF4CFE4FFFACF02
:10006000E4FF00EE6DF0060EE80403E3EECFE4FFDC
:10007000FBD7E6529E900001812B82EC4AF0E552BC
:1000800000EE72F0060EE80403E3E5CFEDFFFBD7C8
:10009000E5CFFAFFE5CFF4FFE5CFF3FFE5CFF5FFBE
:1000A000E5CFF7FFE5CFF6FFE5CF5FF0E5CF5EF0F8
:1000B000E5CF5DF0E5CF5CF0E5CFDAFFE5CFD9FF26
:1000C000E5CFEAFFE5CFE9FFE5CFDAFFE550E5CF81
:0800D000E0FFE5CFD8FF1000AE
:0800D80000005952595200F8D2
:1000E00004210842FF471F4208FFE8FFE8471FE2DC
:1000F00008FA9E071E0000F580F780071EA000F09A
:10010000008040C020A060E0109050D030B070F06F
:10011000088848C828A868E8189858D838B878F8DF
:10012000048444C424A464E4149454D434B474F40F
:100130000C8C4CCC2CAC6CEC1C9C5CDC3CBC7CFC7F
:10014000028242C222A262E2129252D232B272F20F
:100150000A8A4ACA2AAA6AEA1A9A5ADA3ABA7AFA7F
:10016000068646C626A666E6169656D636B676F6AF
:100170000E8E4ECE2EAE6EEE1E9E5EDE3EBE7EFE1F
:10018000018141C121A161E1119151D131B171F1DF
:10019000098949C929A969E9199959D939B979F94F
:1001A000058545C525A565E5159555D535B575F57F
:1001B0000D8D4DCD2DAD6DED1D9D5DDD3DBD7DFDEF
:1001C000038343C323A363E3139353D333B373F37F
:1001D0000B8B4BCB2BAB6BEB1B9B5BDB3BBB7BFBEF
:1001E000078747C727A767E7179757D737B777F71F
:1001F0000F8F4FCF2FAF6FEF1F9F5FDF3FBF7FFF8F
:100200000500D6A7000054000000080000001500FB
:1002100000008300000001000000D2A70000780069
:100220000000040000001400000082000000010033
:0E023000000012000000520F0000020000004B
:02023E0040017D
:100240002800000000000000000000000000000086
:10025000000000000000000000000000000000009E
:10026000000000000000000000000000000000008E
:10027000000000000000000000000000000000007E
:10028000000000000000000000000000000000006E
:10029000000000000000000000000000000000005E
:1002A000000000000000000000000000000000004E
:1002B000000000000000000000000000000000003E
:1002C000000000000000000000000000000000002E
:1002D000000000000000000000000000000000001E
:1002E000000000000000000000000000000000000E
:1002F00000000000000000000000000000000000FE
:1003000000000000000000000000000000000000ED
:1003100000000000000000000000000000000000DD
:1003200000000000000000000000000000002000AD
:1003300040004000400040004000400040004000BD
:10034000400000000000000000000000000000006D
:10035000000000000000000000000000000000009D
:10036000000000000000000000000000000000008D
:10037000000000000000000000000000000000007D
:10038000000000000000000000000000000000006D
:100D90000000000000000000003A240000000000F5
:100DA0000000000000000000000000000000000043
:100DB0000000000000000000000000000000000033
:100DC0000000000000000000000000000000000023
:100DD0000000000000000000000000000000000013
:100DE0000000000000000000000000000000000003
:100DF00000000000000000000000000000000000F3
:100E000000000000000000000000000000000000E2
:100E100000000000000000000000000000000000D2
:100E200000000000000000000000000000000000C2
:100E300000000000000000000000000000000000B2
:100E400000000000000000000000000000000000A2
:100E50000000000000000000000000000000000092
:100E60000000000000000000000000000000000082
:100E70000000000000000000000000000000000072
:100E80000000000000000000000000000000000062
:100E90000000000000000000000000000000000052
:100EA0000000000000000000000000000000000042
:100EB0000000000000000000000000000000000032
:100EC0000000000000000000000000000000000022
:100ED0000000000000000000000000000000000012
:100EE0000000000000000000000000000000000002
:100EF00000000000000000000000000000000000F2
:100F000000000000000000000000000000000000E1
:100F100000000000000000000000000000000000D1
:100F200000000000000000000000000000000000C1
:100F300000000000000000000000000000000000B1
:100F40000000000000002000210000000000000060
:100F50000000000000000000000000000000000091
:100F60000000000000000000000000000000000081
:100F70000000000000000000000000000000000071
:100F80000000000000000000000000000000000061
:100F90000000000000000000000020000000000031
:100FA0000000000000000000000000000000000041
:100FB0000000000000000000000000000000000031
:100FC0000000000000000000000000000000000021
:100FD0000000000000000000000000000000000011
:100FE0000000000000000000000000000000000001
:100FF00000000000000000000000000000000000F1
:1010000000000000000000000000000000000000E0
:1010100000000000000000000000000000000000D0
:1010200000000000000000000000000000000000C0
:1010300000000000000000000000000000000000B0
:101040000000000000000000200020002000200020
:101050002000200000000000000000000000000050
:1010600000002000200020002000200020002000A0
:101070000000000000000000000000000000000070
:101080000000000000000000000000000000000060
:101090000000000000000000000000000000000050
:1010A0000000000000000000000000000000000040
:1010B0000000000000000000000000000000000030
:1010C0000000000000000000000000000000000020
:1010D0000000000000000000000000000000000010
:1010E0000000000000000000000000000000000000
:1010F00000000000000000000000000000000000F0
:1011000000000000000000000000000000000000DF
:1011100000000000000000000000000000000000CF
:1011200000000000000000000000000000000000BF
:1011300000000000000000000000000000000000AF
:10114000000000000000000000000000000000009F
:10115000000000000000000000000000000000008F
:10116000000000000000000000000000000000007F
:10117000000000000000000000000000000000006F
:10118000000000000000000000000000000000005F
:10119000000000000000000000000000000000004F
:1011A000000000000000000000000000000000003F
:1011B000000000000000000000000000000000002F
:1011C000000000000000200000000000E6014801CF
:1011D00028012801480128012801280128012801A7
:1011E0004801280128012801480128012801270178
:1011F00048096801270128012801280968014801D8
:101200004801270128012801280128014801060179
:101210000701280148008308410000000000000089
:1012200000000000000000000000000000000000BE
:1012300000000000000000000000000000000000AE
:10124000000000000000000000000000000000009E
:10125000000000000000000000000000000000008E
:10126000000000000000000000000000000000007E
:10127000000000000000000000000000000000006E
:10128000000000000000000000000000000000005E
:10129000000000000000000000000000000000004E
:1012A000000000000000000000000000200000001E
:1012B000000000000000000000000000000000002E
:1012C00000002000000000000000000000000000FE
:1012D000000000000000000000000000000000000E
:1012E00000000000000000000000000000000000FE
:1012F00020000000000000002000000000000000AE
:1013000020000000000000000000000000000000BD
:1013100000000000000000000000000000000000CD
:1013200000000000000000000000000000000000BD
:1013300000000000000000000000000000000000AD
:10134000000000000000000000000000000000009D
:10135000000000000000000000000000000000008D
:10136000000000000000000000000000000000007D
:10137000000000000000000000000000000000006D
:10138000000000000000000000000000000000005D
:10139000000000000000000000000000000000004D
:1013A000000000000000000000000000000000003D
:1013B000000000000000000000000000000000002D
:1013C000000000000000000000000000000000001D
:1013D000000000000000000000000000000000000D
:1013E00000000000000000000000000000000000FD
:1013F00000000000000000000000000000000000ED
:1014000000000000000000000000000000000000DC
:1014100000000000000000000000000000000000CC
:1014200000000000000000000000000000000000BC
:1014300000000000000000000000000000000000AC
:10144000000000000000200000012804FF057F05C7
:101450005F055F055F04FF049F04BF04BF04BF0472
:10146000BF04BF04BF04BF04BF04BF04BF04BF0464
:10147000BF04BF04BF04BF04BF04BF04BF04BF0454
:10148000BF04BF04BF04BF04BF049F051F055F0561
:101490005F057F057F0335080000000000000000A5
:1014A000000000000000000000000000000000003C
:1014B000000000000000000000000000000000002C
:1014C000000000000000000000000000000000001C
:1014D000000000000000000000000000000000000C
:1014E00000000000000000000000000000000000FC
:1014F00000000000000000000000000000000000EC
:1015000000000000000000000000000000000000DB
:1015100000000000000000000000000000000000CB
:10152000000000000000000000000000410020005A
:1015300000000000000000000000000000000000AB
:10154000000000000000000000000000000000009B
:10155000000000000000000000000000000020006B
:10156000000000000000000000000000000000007B
:10157000000000000000000000000000000000006B
:10158000000000000000200020000000000000001B
:10159000000000000000000000000000000000004B
:1015A000000000000000000000000000000000003B
:1015B000000000000000000000000000000000002B
:1015C000000000000000000000000000000000001B
:1015D000000000000000000000000000000000000B
:1015E00000000000000000000000000000000000FB
:1015F00000000000000000000000000000000000EB
:1016000000000000000000000000000000000000DA
:1016100000000000000000000000000000000000CA
:1016200000000000000000000000000000000000BA
:1016300000000000000000000000000000000000AA
:10164000000000000000000000000000000000009A
:10165000000000000000000000000000000000008A
:10166000000000000000000000000000000000007A
:10167000000000000000000000000000000000006A
:10168000000000000000000000000000000000005A
:10169000000000000000000000000000000000004A
:1016A000000000000000000000000000000000003A
:1016B000000000000000000000000000000000002A
:1016C00000000000000020000001EC04FF02B20254
:1016D000B102D202B2045C04BF045D047D047D0447
:1016E0007D047D047D047D047D047D047D047D04F2
:1016F0007D047D047D047D047D047D047D047D04E2
:101700007D047D047D047D045D04DF03FA02910203
:10171000B20271041B041B08200000190439E839C7
:10172000C739E731C739C739C739E831A629863102
:10173000A73A0839C739E839E739E739C731A74245
:1017400008214500000000318631C739E8296600CC
:101750000000000000000000000000000000000089
:101760000000000000000000000000000000000079
:101770000000000000000000000000000000000069
:101780000000000000000010C331A6294500200021
:101790000000000000000000000000000000000049
:1017A00000000000000000000000200020000000F9
:1017B0000010A2318631A731C739E739E739E7315F
:1017C00086298639E731A739E839C731A739E731A2
:1017D000C731C710A2000000210000000000000077
:1017E000000862298639E739E7420839C739E73105
:1017F000C739E739C739E731C739E839E7318629C9
:101800008639E8420710C3002000000000000000F5
:1018100000000000000000000000000000000000C8
:1018200000000000000000000000000000000000B8
:1018300000000000000000000000000000000000A8
:101840000000000000000000000000000000000098
:101850000000000000000000000000000000000088
:101860000000000000000000000000000000000078
:101870000000000000000000000000000000000068
:101880000000000000000000000000000000000058
:101890000000000000000000000000000000000048
:1018A0000000000000000000000000000000000038
:1018B0000000000000000000000000000000000028
:1018C0000000000000000000000000000000000018
:1018D0000000000000000000000000000000000008
:1018E00000000000000000000000000000000000F8
:1018F00000000000000000000000000000000000E8
:1019000000000000000000000000000000000000D7
:1019100000000000000000000000000000000000C7
:1019200000000000000000000000000000000000B7
:1019300000000000000000000000000000000000A7
:1019400000000000000020000001ED047E080008F7
:101950000008000800096904FF047E045D045D04BA
:101960005D045D045D045D045D045D045D045D046F
:101970005D045D045D045D045D045D045D045D045F
:101980005D045D045D045D04BF045D08A400000007
:1019900000000002B2045C08000000AD55FFFFFF2C
:1019A000FFFFFFFFFFFFFFFFFFFFFFFFFFFFFFFF47
:1019B000FFFFFFFFFFFFFFFFFFFFFFFFFFFFFFFF37
:1019C000FF94D300000000BE18FFFFFFFFCE790098
:1019D0000000000000000000000000000000000007
:1019E00000000000000000000000000000000000F7
:1019F00000000000000000000000000000000000E7
:101A000000000000000000CE59FFFFFFDF738D00D3
:101A100000000000000000000000000000000000C6
:101A200000000000000000002000000000528AB505
:101A300096E73CFFFFFFFFFFFFFFFFFFFFFFFFFFFA
:101A4000FFFFFFFFFFFFFFFFFFFFFFFFFFFFFFFFA6
:101A5000FFFFFF31A60000086200000000630CB524
:101A6000B6EF7DFFFFFFFFFFFFFFFFFFFFFFFFFF61
:101A7000FFFFFFFFFFFFFFFFFFFFFFFFFFFFFFFF76
:101A8000FFFFFFFFFF3A09000000200000000000F8
:101A90000000000000000000000000000000000046
:101AA0000000000000000000000000000000000036
:101AB0000000000000000000000000000000000026
:101AC0000000000000000000000000000000000016
:101AD0000000000000000000000000000000000006
:101AE00000000000000000000000000000000000F6
:101AF00000000000000000000000000000000000E6
:101B000000000000000000000000000000000000D5
:101B100000000000000000000000000000000000C5
:101B200000000000000000000000000000000000B5
:101B300000000000000000000000000000000000A5
:101B40000000000000000000000000000000000095
:101B50000000000000000000000000000000000085
:101B60000000000000000000000000000000000075
:101B70000000000000000000000000000000000065
:101B80000000000000000000000000000000000055
:101B90000000000000000000000000000000000045
:101BA0000000000000000000000000000000000035
:101BB0000000000000000000000000000000000025
:101BC00000000000000020000001ED049F006208FA
:101BD000200021086108000291051F045D045D04D6
:101BE0005D045D045D045D045D045D045D045D04ED
:101BF0005D045D045D045D045D045D045D045D04DD
:101C00005D045D045D047E051F0169080008410054
:101C100020000002F3043C08000000AD96FFFFFF27
:101C2000FFFFFFFFFFFFFFFFFFFFFFFFFFFFFFFFC4
:101C3000FFFFFFFFFFFFFFFFFFFFFFFFFFFFFFFFB4
:101C4000FFA53500000000C639FFFFFFFFD6BA0030
:101C50000000000000000000000000000000000084
:101C60000000000000000000000000000000000074
:101C70000000000000000000000000000000000064
:101C80000000000000630CFFFFFFFFFFFFF79E084E
:101C900061000000000000002000200000000000A3
:101CA00000000000000020002000008431FFFFFF42
:101CB000FFFFFFFFFFFFFFFFFFFFFFFFFFFFFFFF34
:101CC000FFFFFFFFFFFFFFFFFFFFFFFFFFFFFFFF24
:101CD000FFFFFF39C7000000210000A555FFFFFFEF
:101CE000FFFFFFFFFFFFFFFFFFFFFFFFFFFFFFFF04
:101CF000FFFFFFFFFFFFFFFFFFFFFFFFFFFFFFFFF4
:101D0000FFFFFFFFFF4A6A00000000000000000024
:101D100000000000000000000000000000000000C3
:101D200000000000000000000000000000000000B3
:101D300000000000000000000000000000000000A3
:101D40000000000000000000000000000000000093
:101D50000000000000000000000000000000000083
:101D60000000000000000000000000000000000073
:101D70000000000000000000000000000000000063
:101D80000000000000000000000000000000000053
:101D90000000000000000000000000000000000043
:101DA0000000000000000000000000000000000033
:101DB0000000000000000000000000000000000023
:101DC0000000000000000000000000000000000013
:101DD0000000000000000000000000000000000003
:101DE00000000000000000000000000000000000F3
:101DF00000000000000000000000000000000000E3
:101E000000000000000000000000000000000000D2
:101E100000000000000000000000000000000000C2
:101E200000000000000000000000000000000000B2
:101E300000000000000000000000000000000000A2
:101E400000000000000020000001ED049F0882084F
:101E500020002000410820000003B904FF045D04B5
:101E60005D045D045D045D045D045D045D045D046A
:101E70005D045D045D045D045D045D045D045D045A
:101E80005D045D045D051F02B200000020086108CA
:101E900041000002F4041B08200000B5B6FFFFFF5C
:101EA000FFFFFFFFFFFFFFFFFFFFFFFFFFFFFFFF42
:101EB000FFFFFFFFFFFFFFFFFFFFFFFFFFFFFFFF32
:101EC000FFAD5500000000BDF7EF7DF7BEBE18085E
:101ED00041000000000000000000000000000000C1
:101EE00000000000000000000000000000000000F2
:101EF00000000000000000000000000000000000E2
:101F00000000200020E71BFFFFFFFFFFFFFFFF7B1C
:101F1000EF00000000000000000020004100200051
:101F20000000000000000000004A8AFFFFFFFFFFE2
:101F3000FFFFFFFFFFFFFFFFFFFFFFFFFFFFFFFFB1
:101F4000FFFFFFFFFFFFFFFFFFFFFFFFFFFFFFFFA1
:101F5000FFFFFF31A6000000006B6DFFFFFFFFFFDA
:101F6000FFFFFFFFFFFFFFFFFFFFFFFFFFFFFFFF81
:101F7000FFFFFFFFFFFFFFFFFFFFFFFFFFFFFFFF71
:101F8000FFFFFFFFFF528A0000000000000000007A
:101F90000000000000000000000000000000000041
:101FA0000000000000000000000000000000000031
:101FB0000018C20000000000000000000000000047
:101FC0000000000000000000000000000000000011
:101FD0000000000000000000000000000000000001
:101FE00000000000000000000000000000000000F1
:101FF00000000000000000000000000000000000E1
:1020000000000000000000000000000000000000D0
:1020100000000000000000000000000000000000C0
:1020200000000000000000000000000000000000B0
:1020300000000000000000000000000000000000A0
:102040000000000000000000000000000000000090
:102050000000000000000000000000000000000080
:102060000000000000000000000000000000000070
:102070000000000000000000000000000000000060
:102080000000000000000000000000000000000050
:102090000000000000000000000000000000000040
:1020A0000000000000000000000000000000000030
:1020B0000000000000000000000000000000000020
:1020C00000000000000020000001ED049F0042001D
:1020D0000000000000002000000084049E04BF04F3
:1020E0005D045D045D045D045D045D045D045D04E8
:1020F0005D045D045D045D045D045D045D045D04D8
:102100005D045D04FF03DA00000000002100000010
:1021100000000002F403FB0000000029864A694227
:102120004942294229422942294229422942294237
:102130002942294229422942294229422942294A3F
:1021400069296500000000BDD7EF7DEF5DCE590025
:10215000200000000000000000000000000000005F
:10216000000000000000000000000000000000006F
:10217000000000000000000000000000000000005F
:102180002000006B8EFFFFFFFFFFFFFFFFFFFFF749
:102190007E1082000000000000000000000000002F
:1021A000000000000000000000AD76FFFFFFFFFF11
:1021B000FFBDD7630C4228422842294229422942C6
:1021C00029422942294229422942294229422942B7
:1021D000494229086200000000C638FFFFFFFFFFE8
:1021E000FFA5145ACB4228422942294229422942BA
:1021F0002942294229422942294229422942294287
:10220000294A8A4A6910820000000000000000008C
:1022100000000000000000000000000000000000BE
:1022200000000000000000000000000000000000AE
:10223000000000000000000000000000000000009E
:10224000000000000000000000000000000000008E
:10225000000000000000000000000000000000007E
:10226000000000000000000000000000000000006E
:10227000000000000000000000000000000000005E
:10228000000000000000000000000000000000004E
:10229000000000000000000000000000000000003E
:1022A000000000000000000000000000000000002E
:1022B000000000000000000000000000000000001E
:1022C000000000000000000000000000000000000E
:1022D00000000000000000000000000000000000FE
:1022E00000000000000000000000000000000000EE
:1022F00000000000000000000000000000000000DE
:1023000000000000000000000000000000000000CD
:1023100000000000000000000000000000000000BD
:1023200000000000000000000000000000000000AD
:10233000000000000000000000000000000000009D
:1023400000000000000020000001ED049F0042009A
:10235000000020002000200000000001AB051F0449
:102360007E045D045D045D045D045D045D045D0444
:102370005D045D045D045D045D045D045D045D0455
:102380005D049E04BF00C500000020002000200066
:1023900000000002F4041B00000000000000000028
:1023A000000000000000000000000000000000002D
:1023B000000000000000000000000000000000001D
:1023C00000000000000000BDD7FFFFFFFFCE590056
:1023D00000000000000000000000000000000000FD
:1023E00000000000000000000000000000000000ED
:1023F00000000000000000000000000000000000DD
:10240000000862F79EFFFFFFFF9CF3C638FFFFFF47
:10241000FF8C5100000000000000000000000000E0
:10242000000000000000000000D69AFFFFFFFFC67A
:102430003900000000000000000000000000000063
:10244000000000000000000000000000000000008C
:10245000000000000000000000DEFBFFFFFFFFB5F2
:1024600096000000000000000000000000000000D6
:10247000000000000000000000000000000000005C
:10248000000000000000000020000000000000002C
:10249000000000000000000000000000000000003C
:1024A000000000000000000000000000000000002C
:1024B000000000000000000000000000000000001C
:1024C000000000000000000000000000000000000C
:1024D00000000000000000000000000000000000FC
:1024E00000000000000000000000000000000000EC
:1024F00000000000000000000000000000000000DC
:1025000000000000000000000000000000000000CB
:1025100000000000000000000000000000000000BB
:1025200000000000000000000000000000000000AB
:10253000000000000000000000000000000000009B
:10254000000000000000000000000000000000008B
:10255000000000000000000000000000000000007B
:10256000000000000000000000000000000000006B
:10257000000000000000000000000000000000005B
:10258000000000000000000000000000000000004B
:10259000000000000000000000000000000000003B
:1025A000000000000000000000000000000000002B
:1025B000000000000000000000000000000000001B
:1025C000000000000000200000022F053F00420034
:1025D0000000200020002000210000000002D305A0
:1025E0007F051F04FF04FF04FF04FF04FF04FF0432
:1025F000FF04FF04FF04FF04FF04FF04FF04FF05C2
:102600001F055F01ED0000000000200020002000F9
:10261000000000037704BF0000000000200000005D
:1026200020002000200020002000200020002000AA
:10263000200020002000200020002000200020009A
:1026400020002000000000BDD7FFFFFFFFCE590093
:10265000000000000000000000000000000000007A
:10266000000000000000000000000000000000006A
:10267000000000000000000000000000000000005A
:10268000008C51FFFFFFFFFFFF00004249FFFFFFEB
:10269000FFFFDF2125000000000000000000000017
:1026A000000000000000000000D69AFFFFFFFF9C22
:1026B000F300000000002000200020002000200087
:1026C000200020002000200020002000200020000A
:1026D000200020002000000021DEFBFFFFFFFF9410
:1026E000B300000000002000200020002000200097
:1026F00020002000200020002000200020002000DA
:102700002000000000002000200000000000000069
:1027100000000000000000000000000000000000B9
:1027200000000000000000000000000000000000A9
:102730000000000000000000000000000000000099
:102740000000000000000000000000000000000089
:102750000000000000000000000000000000000079
:102760000000000000000000000000000000000069
:102770000000000000000000000000000000000059
:102780000000000000000000000000000000000049
:102790000000000000000000000000000000000039
:1027A0000000000000000000000000000000000029
:1027B0000000000000000000000000000000000019
:1027C0000000000000000000000000000000000009
:1027D00000000000000000000000000000000000F9
:1027E00000000000000000000000000000000000E9
:1027F00000000000000000000000000000000000D9
:1028000000000000000000000000000000000000C8
:1028100000000000000000000000000000000000B8
:1028200000000000000000000000000000000000A8
:102830000000000000000000000000000000000098
:102840000000000000002000000106024F002100EF
:1028500000002100200000000000210000004102D3
:1028600070024F022E022E022E022E022E022E0285
:102870002E022E022E022E022E022E022E022E02D8
:1028800090020E0000000000210000000000210066
:10289000000000018A020D0000000000200020005E
:1028A0002000200020002000200020002000200028
:1028B0002000200020002000200020002000200018
:1028C00020002000000000BDD7FFFFFFFFCE590011
:1028D00000000000000000000000000000000000F8
:1028E00000000000000000000000000000000000E8
:1028F00000000000000000000000000000000010C8
:10290000C3FFDFFFFFFFFF8C7200000000DEFBFF54
:10291000FFFFFFB5B700000000000000000000004E
:10292000000000000000000000D69AFFFFFFFFA596
:1029300035000000000020002000200020002000C2
:102940002000200020002000200020002000200087
:10295000200020002000000021DEFBFFFFFFFF9C85
:10296000D3000000000020002000200020002000F4
:102970002000200020002000200020002000200057
:102980002000200020002000200020002000200047
:102990000000000000000000000000000000000037
:1029A0000000000000000000000000000000000027
:1029B0000000000000000000000000000000000017
:1029C0000000000000000000000000000000000007
:1029D00000000000000000000000000000000000F7
:1029E00000000000000000000000000000000000E7
:1029F00000000000000000000000000000000000D7
:102A000000000000000000000000000000000000C6
:102A100000000000000000000000000000000000B6
:102A200000000000000000000000000000000000A6
:102A30000000000000000000000000000000000096
:102A40000000000000000000000000000000000086
:102A50000000000000000000000000000000000076
:102A60000000000000000000000000000000000066
:102A70000000000000000000000000000000000056
:102A80000000000000000000000000000000000046
:102A90000000000000000000000000000000000036
:102AA0000000000000000000000000000000000026
:102AB0000000000000000000000000000000000016
:102AC00000000000000020002000000000002000A6
:102AD0002000200020004200000000002100000033
:102AE00000000000000000000000000000000000E6
:102AF00000000000000000000000000000000000D6
:102B00000000000000002000000022004200200021
:102B10002000200000000000200020000000000035
:102B200000000000000000000000000000000000A5
:102B30000000000000000000000000000000000095
:102B400000002100000000BDD7FFFFFFFFCE5900AD
:102B50000000000000000000000000000000000075
:102B60000000000000000000000000000000000065
:102B70000000000000000000000000000000009CB9
:102B8000F4FFFFFFFFF7BE08820000000052ABFF1A
:102B9000FFFFFFFFFF39E800000000000000000019
:102BA000000000000000000000D69AFFFFFFFFA514
:102BB0005500000000002000200020002000200020
:102BC0002000200020002000200020002000200005
:102BD000200020002000000000DEFBFFFFFFFFAD13
:102BE0005500000000000000000000000000000090
:102BF00000000000000000000000000000000000D5
:102C00000000000020002000200020002000200004
:102C100000000000000000000000000000000000B4
:102C200000000000000000000000000000000000A4
:102C30000000000000000000000000000000000094
:102C40000000000000000000000000000000000084
:102C50000000000000000000000000000000000074
:102C60000000000000000000000000000000000064
:102C70000000000000000000000000000000000054
:102C80000000000000000000000000000000000044
:102C90000000000000000000000000000000000034
:102CA0000000000000000000000000000000000024
:102CB0000000000000000000000000000000000014
:102CC0000000000000000000000000000000000004
:102CD00000000000000000000000000000000000F4
:102CE00000000000000000000000000000000000E4
:102CF00000000000000000000000000000000000D4
:102D000000000000000000000000000000000000C3
:102D100000000000000000000000000000000000B3
:102D200000000000000000000000000000000000A3
:102D30000000000000000000000000000000000093
:102D4000000000000000200000016C037E00220053
:102D50000000000000031A01F20000000000000063
:102D600000018E03DF035D033C035C035C035C0333
:102D70005C035C035C035C035C033C037D039F0119
:102D8000080000002000000064037D01090000002D
:102D90002000000233031A0000000010A3212519AF
:102DA0000418E418E318E318E318E318E318E31829
:102DB000E318E318E318E318E318E318E319041021
:102DC000A3000000000000BDD7FFFFFFFFCE5900A9
:102DD00000000000000000000000000000000000F3
:102DE00000000000000000000000000000000000E3
:102DF000000000000000000000000000002145FF6E
:102E0000FFFFFFFFFF7BCF0000000000000000D6A7
:102E1000BAFFFFFFFFCE79000000000000000000B5
:102E2000000000000000000000D69AFFFFFFFFA591
:102E3000550000000000200020002000200020009D
:102E40002000200020002000200020002000200082
:102E5000200020002000000000CE79FFFFFFFFF7D8
:102E6000BE843031A7294529652965296529652949
:102E70006529652965296529652966214518E300C5
:102E800000000000000020002000200020002000A2
:102E90000000000000000000000000000000000032
:102EA0000000000000000000000000000000000022
:102EB0000000000000000000000000000000000012
:102EC0000000000000000000000000000000000002
:102ED00000000000000000000000000000000000F2
:102EE00000000000000000000000000000000000E2
:102EF00000000000000000000000000000000000D2
:102F000000000000000000000000000000000000C1
:102F100000000000000000000000000000000000B1
:102F200000000000000000000000000000000000A1
:102F30000000000000000000000000000000000091
:102F40000000000000000000000000000000000081
:102F50000000000000000000000000000000000071
:102F60000000000000000000000000000000000061
:102F70000000000000000000000000000000000051
:102F80000000000000000000000000000000000041
:102F90000000000000000000000000000000000031
:102FA0000000000000000000000000000000000021
:102FB0000000000000000000000000000000000011
:102FC00000000000000020000001CF041F004200AC
:102FD0000000000000037D049F012A000000200083
:102FE00000000002D8045F03FF03FF03FF03FF0399
:102FF000FF03FF03FF03FF03FF03FF045F02120051
:1030000000000000000042033B04BF010900000073
:1030100020000002B703BF000000009CF3FFBFF7D1
:103020009EEF7EEF7DEF7DEF7DEF7DEF7DEF7DEF1E
:103030007DEF7DEF7DEF7DEF7DEF7DEF7DF79EBD39
:10304000D7000000000000BDD7FFFFFFFFCE5900F2
:103050000000000000000000000000000000000070
:103060000000000000000000000000000000000060
:1030700000000000000000000000000000B5B6FFE6
:10308000FFFFFFEF5D004100000021002000004A2B
:103090006AFFFFFFFFFFFF4A8A00000000000000F8
:1030A000000020002000000000D69AFFFFFFFFA5CF
:1030B000550000000000200020002000200020001B
:1030C0002000200020002000200020002000200000
:1030D00020002000200000000073CFFFFFFFFFFF53
:1030E000FFFFFFFFFFFFFFFFFFFFFFFFFFFFFFFFF0
:1030F000FFFFFFFFFFFFFFFFFFFFFFFFFFEF7DCEA3
:1031000079843018C3000000200020002000200037
:1031100000000000000000000000000000000000AF
:10312000000000000000000000000000000000009F
:10313000000000000000000000000000000000008F
:10314000000000000000000000000000000000007F
:10315000000000000000000000000000000000006F
:10316000000000000000000000000000000000005F
:10317000000000000000000000000000000000004F
:10318000000000000000000000000000000000003F
:10319000000000000000000000000000000000002F
:1031A000000000000000000000000000000000001F
:1031B000000000000000000000000000000000000F
:1031C00000000000000000000000000000000000FF
:1031D00000000000000000000000000000000000EF
:1031E00000000000000000000000000000000000DF
:1031F00000000000000000000000000000000000CF
:1032000000000000000000000000000000000000BE
:1032100000000000000000000000000000000000AE
:10322000000000000000000000000000000000009E
:10323000000000000000000000000000000000008E
:103240000000000000002000000084012800210090
:10325000000000000000E6018A00E6000000000017
:103260002100000042016C01290108010801080148
:10327000080108010801080108012A014B000000AB
:1032800000002100000020016B0128006200000006
:1032900020000000C5010700000000AD96FFFFFF01
:1032A000FFFFFFFFFFFFFFFFFFFFFFFFFFFFFFFF2E
:1032B000FFFFFFFFFFFFFFFFFFFFFFFFFFFFFFD647
:1032C000BA000000000000BDD7FFFFFFFFCE59008D
:1032D00000000000000000000000000000000000EE
:1032E00000000000000000000000000000000000DE
:1032F000000000000000000000000039E7FFFFFFB1
:10330000FFFFFF634D0000000000200020000000D0
:1033100000CE59FFFFFFFFDEDB00000000002000B1
:10332000200020002000000000D69AFFFFFFFFA52C
:103330005500000000002000200020002000200098
:10334000200020002000200020002000200020007D
:103350002000200020002100000020BDF7FFFFFF1B
:10336000FFFFFFFFFFFFFFFFFFFFFFFFFFFFFFFF6D
:10337000FFFFFFFFFFFFFFFFFFFFFFFFFFFFFFFF5D
:10338000FFFFFFEF5D3186000000200020000000FD
:10339000000000000000000000000000000000002D
:1033A000000000000000000000000000000000001D
:1033B000000000000000000000000000000000000D
:1033C00000000000000000000000000000000000FD
:1033D00000000000000000000000000000000000ED
:1033E00000000000000000000000000000000000DD
:1033F00000000000000000000000000000000000CD
:1034000000000000000000000000000000000000BC
:1034100000000000000000000000000000000000AC
:10342000000000000000000000000000000000009C
:10343000000000000000000000000000000000008C
:10344000000000000000000000000000000000007C
:10345000000000000000000000000000000000006C
:10346000000000000000000000000000000000005C
:10347000000000000000000000000000000000004C
:10348000000000000000000000000000000000003C
:10349000000000000000000000000000000000002C
:1034A000000000000000000000000000000000001C
:1034B000000000000000000000000000000000000C
:1034C0000000000000002000000022002400210075
:1034D0002000200020002300240066008700000058
:1034E00000002100000000004500440024002400EA
:1034F00024002400240023004500240000000000D4
:10350000210000004300A800240024002100000046
:103510002000000023002400000000BDD7FFFFFFB3
:10352000FFFFFFFFFFFFFFFFFFFFFFFFFFFFFFFFAB
:10353000FFFFFFFFFFFFFFFFFFFFFFFFFFFFFFE7B3
:103540001C000000000000BDD7FFFFFFFFCE5900A8
:10355000000000000000000000000000000000006B
:10356000000000000000000000000000000000005B
:103570000000000000000000000000CE59FFFFFF27
:10358000FFDEFB00000000002000200020002100E2
:10359000003A08FFFFFFFFFFFF632D00000000005F
:1035A000200020002000000000D69AFFFFFFFFA5AA
:1035B0005500000000002000200020002000200016
:1035C00020002000200020002000200020002000FB
:1035D0002000200020002000210000000073AFD652
:1035E0009AFFDFFFFFFFFFFFFFFFFFFFFFFFFFFF70
:1035F000FFFFFFFFFFFFFFFFFFFFFFFFFFFFFFFFDB
:10360000FFFFFFFFFFE71C0041000000200000005B
:1036100000000000000000000000000000000000AA
:10362000000000000000000000000000000000009A
:10363000000000000000000000000000000000008A
:10364000000000000000000000000000000000007A
:10365000000000000000000000000000000000006A
:10366000000000000000000000000000000000005A
:10367000000000000000000000000000000000004A
:10368000000000000000000000000000000000003A
:10369000000000000000000000000000000000002A
:1036A000000000000000000000000000000000001A
:1036B000000000000000000000000000000000000A
:1036C00000000000000000000000000000000000FA
:1036D00000000000000000000000000000000000EA
:1036E00000000000000000000000000000000000DA
:1036F00000000000000000000000000000000000CA
:1037000000000000000000000000000000000000B9
:1037100000000000000000000000000000000000A9
:103720000000000000000000000000000000000099
:103730000000000000000000000000000000000089
:10374000000000000000200000010D027F002200A8
:10375000000000000001D8029F025E027F00EB0023
:10376000000020000000000172029F025D025D0265
:103770005D025D025D025E029F010D0000002000FF
:1037800000002201F9027F025E027F00A800000013
:103790002000000194023C0000000039E8630C5A4C
:1037A000EC5AEC5AEB5AEB5AEB5AEB5AEB5AEB5AEF
:1037B000EB5AEB5AEB5AEB5AEB5AEB5AEB5B0C42D7
:1037C00049000000000000BDD7FFFFFFFFCE5900F9
:1037D00000000000000000000000000000000000E9
:1037E00000000000000000000000000000000000D9
:1037F0000000000000000000002945FFFFFFFFFF60
:10380000FF52AB000000000020002000200020003C
:10381000000000BDF7FFFFFFFFEF3D00410000008B
:10382000210020002000000000D69AFFFFFFFFA526
:103830005500000000002000200020002000200093
:103840002000200020002000200020002000200078
:1038500020002000200020002000210000000000A7
:1038600000296542284A494A694A494A494A494A17
:10387000494A494A494A494A4942494A697BEFE724
:103880003CFFFFFFFFFFFF4A6A000000200000002E
:103890000000000000000000000000000000000028
:1038A0000000000000000000000000000000000018
:1038B0000000000000000000000000000000000008
:1038C00000000000000000000000000000000000F8
:1038D00000000000000000000000000000000000E8
:1038E00000000000000000000000000000000000D8
:1038F00000000000000000000000000000000000C8
:1039000000000000000000000000000000000000B7
:1039100000000000000000000000000000000000A7
:103920000000000000000000000000000000000097
:103930000000000000000000000000000000000087
:103940000000000000000000000000000000000077
:103950000000000000000000000000000000000067
:103960000000000000000000000000000000000057
:103970000000000000000000000000000000000047
:103980000000000000000000000000000000000037
:103990000000000000000000000000000000000027
:1039A0000000000000000000000000000000000017
:1039B0000000000000000000000000000000000007
:1039C000000000000000200000010C025D00220049
:1039D000000000000001D6027F023C025E023C00B3
:1039E00065000000210000000001B7025E023C02F9
:1039F0003C023C023C027F0172000000000000001B
:103A0000000173027F023C023C025E00A80000003D
:103A10002000000193021A000000000000000000D6
:103A20000000000000000000000000000000000096
:103A30000000000000000000000000000000000086
:103A400000002100000000BDD7FFFFFFFFCE59009E
:103A50000000000000000000000000000000000066
:103A60000000000000000000000000000000000056
:103A7000000000000000000000DEDBFFFFFFFFD6BB
:103A8000BA000000000020002000200020002000DC
:103A900021000031A7FFFFFFFFFFFF7BCF000000E9
:103AA000000020002000000000D69AFFFFFFFFA5C5
:103AB0005500000000002000200020002000200011
:103AC00020002000200020002000200020002000F6
:103AD0002000200020002000200020002000000006
:103AE00000000000000000000000000000000000D6
:103AF000000000000000000000000000000000398D
:103B0000E8FFFFFFFFFFFF6B8E000000200020009A
:103B1000000000000000000000000018E3000000AA
:103B20000000000000000000000000000000000095
:103B30000000000000000000000000000000000085
:103B40000000000000000000000000000000000075
:103B50000000000000000000000000000000000065
:103B60000000000000000000000000000000000055
:103B70000000000000000000000000000000000045
:103B80000000000000000000000000000000000035
:103B90000000000000000000000000000000000025
:103BA0000000000000000000000000000000000015
:103BB0000000000000000000000000000000000005
:103BC00000000000000000000000000000000000F5
:103BD00000000000000000000000000000000000E5
:103BE00000000000000000000000000000000000D5
:103BF00000000000000000000000000000000000C5
:103C000000000000000000000000000000000000B4
:103C100000000000000000000000000000000000A4
:103C20000000000000000000000000000000000094
:103C30000000000000000000000000000000000084
:103C400000000000000020002000210042002000B1
:103C500020002000000022004200420022006400F8
:103C60002100000020002100000021008600420009
:103C700022002200430086002000000021000000F6
:103C80000000640042004200420042002100200087
:103C90002000200022002200000020002000200040
:103CA0002000200020002000200020002000200014
:103CB0002000200020002000200020002000200004
:103CC00020002000000000BDD7FFFFFFFFCE5900FD
:103CD00000000000000000000000000000000000E4
:103CE00000000000000000000000000000000000D4
:103CF00000000000000000632DFFFFFFFFFFFF42F8
:103D000049000000200020002000200020002000AA
:103D10002000000000B5B6FFFFFFFFF7BE088200DD
:103D2000000021002000000000D69AFFFFFFFFA541
:103D3000550000000000200020002000200020008E
:103D40002000200020002000200020002000200073
:103D50002000200020002000200020002000200063
:103D60002000200020002000200020002000200053
:103D70002000200020002000200020002000002142
:103D800024FFFFFFFFFFFF6B8E00000020002000DC
:103D90000000000000000000000000000000000023
:103DA0000000000000000000000000000000000013
:103DB0000000000000000000000000000000000003
:103DC00000000000000000000000000000000000F3
:103DD00000000000000000000000000000000000E3
:103DE00000000000000000000000000000000000D3
:103DF00000000000000000000000000000000000C3
:103E000000000000000000000000000000000000B2
:103E100000000000000000000000000000000000A2
:103E20000000000000000000000000000000000092
:103E30000000000000000000000000000000000082
:103E40000000000000000000000000000000000072
:103E50000000000000000000000000000000000062
:103E60000000000000000000000000000000000052
:103E70000000000000000000000000000000000042
:103E80000000000000000000000000000000000032
:103E90000000000000000000000000000000000022
:103EA0000000000000000000000000000000000012
:103EB0000000000000000000000000000000000002
:103EC000000000000000200000006400A8002100A5
:103ED0000000000000008600A900A800A800A700BC
:103EE000EB00A70000000000210000000000CA0055
:103EF000A800A900A8000000000021000000430065
:103F0000EC00A800A700A800A800A800420000003C
:103F1000200000006500A700000000002000200035
:103F20002000200020002000200020002000200091
:103F30002000200020002000200020002000200081
:103F400020002000000000BDD7FFFFFFFFCE59007A
:103F50000000000020002000000000000000000021
:103F60000000000000000000000000000000000051
:103F700000000000000041EF5DFFFFFFFFC63800BA
:103F800000000000200000000000000020002000D1
:103F900020002100002145FFFFFFFFFFFF9492005A
:103FA000000000002000000000D69AFFFFFFFFA5E0
:103FB000550000000000200020002000200020000C
:103FC00020002000200020002000200020002000F1
:103FD00020002000200020002000200020002000E1
:103FE00020002000200020002000200020002000D1
:103FF00020002000200020002000200020000029B8
:1040000086FFFFFFFFFFFF6B6E0000002000200017
:1040100000000000000000000000000000000000A0
:104020000000000000000000000000000000000090
:104030000000000000000000000000000000000080
:104040000000000000000000000000000000000070
:104050000000000000000000000000000000000060
:104060000000000000000000000000000000000050
:104070000000000000000000000000000000000040
:104080000000000000000000000000000000000030
:104090000000000000000000000000000000000020
:1040A0000000000000000000000000000000000010
:1040B0000000000000000000000000000000000000
:1040C00000000000000000000000000000000000F0
:1040D00000000000000000000000000000000000E0
:1040E00000000000000000000000000000000000D0
:1040F00000000000000000000000000000000000C0
:1041000000000000000000000000000000000000AF
:10411000000000000000000000000000000000009F
:10412000000000000000000000000000000000008F
:10413000000000000000000000000000000000007F
:1041400000000000000020000000EB021A00210027
:1041500000000000000194023C01F901F901F9029C
:104160001A021A006600000020000000010173021C
:104170005D023D012E0000000000000000017202FF
:104180003B01F901F901F90219021B008700000047
:10419000200000015101D700000000002000200095
:1041A000200020002000200020002000200020000F
:1041B00020002000200020002000200020002000FF
:1041C00020002000000000BDD7FFFFFFFFCE5900F8
:1041D000000000002000200000000000000000009F
:1041E00000000000000000000000000000000000CF
:1041F00000000000007BEFFFFFFFFFFFFF39C7005B
:10420000000020000000000000000000000020006E
:1042100020002000000000A555FFFFFFFFFFFF1852
:10422000E30000002100000000D69AFFFFFFFFA579
:1042300034000000000020002000200020002000AA
:10424000200020002000200020002000200020006E
:10425000200020002000200020002000200020005E
:10426000200020002000200020002000200020004E
:104270002000200020002000200020002000002935
:1042800066FFFFFFFFFFFF6B6E00000020002000B5
:10429000000000000000000000000000000000001E
:1042A000000000000000000000000000000000000E
:1042B00000000000000000000000000000000000FE
:1042C00000000000000000000000000000000000EE
:1042D00000000000000000000000000000000000DE
:1042E00000000000000000000000000000000000CE
:1042F00000000000000000000000000000000000BE
:1043000000000000000000000000000000000000AD
:10431000000000000000000000000000000000009D
:10432000000000000000000000000000000000008D
:10433000000000000000000000000000000000007D
:10434000000000000000000000000000000000006D
:10435000000000000000000000000000000000005D
:10436000000000000000000000000000000000004D
:10437000000000000000000000000000000000003D
:10438000000000000000000000000000000000002D
:10439000000000000000000000000000000000001D
:1043A000000000000000000000000000000000000D
:1043B00000000000000000000000000000000000FD
:1043C00000000000000020000000CA01D70001002A
:1043D0000000000000017201F901D601D601D601EA
:1043E000B601F801B5002100000021000000210104
:1043F000D80194000000000020000000EC021A0127
:10440000B601D601D601D601D701F800860000001A
:10441000200000012F01B500000000000000000096
:10442000000000002000200020002000000000000C
:10443000200020000000000000000000200000001C
:1044400000000000000000BDD7FFFFFFFFCE5900B5
:10445000000000002000200000000000000000001C
:10446000000000000000000000000000000000004C
:1044700000000010A3F7BEFFFFFFFFB5B60000006D
:10448000000000000000000000000000000000002C
:10449000000000000000002104FFFFFFFFFFFFA558
:1044A000140000000000000000D69AFFFFFFFFA5E7
:1044B00014000000000000000000000000000000E8
:1044C00020002000000000000000000000000000AC
:1044D000000000000000000000002000200020007C
:1044E00020002000200020002000200020002000CC
:1044F00020002000200020002000200020000010CC
:10450000C3FFFFFFFFFFFF6B8E00000020000000D5
:10451000000000000000000000000000000000009B
:10452000000000000000000000000000000000008B
:10453000000000000000000000000000000000007B
:10454000000000000000000000000000000000006B
:10455000000000000000000000000000000000005B
:10456000000000000000000000000000000000004B
:10457000000000000000000000000000000000003B
:10458000000000000000000000000000000000002B
:10459000000000000000000000000000000000001B
:1045A000000000000000000000000000000000000B
:1045B00000000000000000000000000000000000FB
:1045C00000000000000000000000000000000000EB
:1045D00000000000000000000000000000000000DB
:1045E00000000000000000000000000000000000CB
:1045F00000000000000000000000000000000000BB
:1046000000000000000000000000000000000000AA
:10461000000000000000000000000000000000009A
:10462000000000000000000000000000000000008A
:10463000000000000000000000000000000000007A
:1046400000000000000020000000CA01D708620836
:104650006000200000017201F901D601D601D601E7
:10466000D601B6021A015000000000002000000030
:10467000650064000000010000008601F901D70117
:10468000D601D601D601D601D601D800A700000078
:10469000000000012F01B5000008610000000000CB
:1046A000000000000000000000000000000000000A
:1046B00000000000000000000000000000000000FA
:1046C00000000000000000BDD7FFFFFFFFC618007C
:1046D00000000000000000000000000000000000DA
:1046E00000000000000000000000000000000000CA
:1046F00020000094B3FFFFFFFFFFFF2145000000F3
:1047000000000000000000000000000000000000A9
:104710000000000000000000009CD3FFFFFFFFFF2F
:10472000FF3186000000000000CE59FFFFFFFFE7C9
:104730001C21250000000000000000000000000017
:104740000000000000000000000000000000000069
:104750000000000000000000000000000000000059
:104760000000000000000000000000000000000049
:104770000000000000000000000000000000006BCE
:104780004DFFFFFFFFFFFF6B8E00000000000000E9
:104790000000000000000000000000000000000019
:1047A0000000000000000000000000000000000009
:1047B00000000000000000000000000000000000F9
:1047C00000000000000000000000000000000000E9
:1047D00000000000000000000000000000000000D9
:1047E00000000000000000000000000000000000C9
:1047F00000000000000000000000000000000000B9
:1048000000000000000000000000000000000000A8
:104810000000000000000000000000000000000098
:104820000000000000000000000000000000000088
:104830000000000000000000000000000000000078
:104840000000000000000000000000000000000068
:104850000000000000000000000000000000000058
:104860000000000000000000000000000000000048
:104870000000000000000000000000000000000038
:104880000000000000000000000000000000000028
:104890000000000000000000000000000000000018
:1048A0000000000000000000000000000000000008
:1048B00000000000000000000000000000000000F8
:1048C00000000000000020000000CA01D7004200E4
:1048D0002010810020017201F901D601D601D60114
:1048E000D601D601D6021A00CA0800002100200015
:1048F00000000000410820002101B601F801B601C6
:10490000D601D601D601D601D601D708C718600056
:10491000000000014F01B4002008205AEC9CF38CE9
:104920009294928C518C518C518C51949294928C83
:10493000518C5194929492949294718C7294929C12
:10494000D35AEB00000000BDD7FFFFFFFFE73C8C10
:10495000718C718C928C9294B294928C728C928C99
:10496000928C928C928C928C7294B38C7110A30066
:10497000002124FFFFFFFFFFFFA51400000000003F
:104980000000000000000000000000000000000027
:1049900000000000000000000018C3FFDFFFFFFF61
:1049A000FFBE1800000000000094D3FFFFFFFFFFD0
:1049B000FFF7BEAD7594B2949294B294B294B28C57
:1049C000728C7294B294B294B2949294B394B2945E
:1049D000B294D3212400200000296694B394928CD1
:1049E000928C928C928C928C928C928C928C928CD7
:1049F000928C928C928C928C928C719492BE18FFB5
:104A0000FFFFFFFFFFFFFF31C700000000000000B5
:104A10000000000000000000000000000000000096
:104A20000000000000000000000000000000000086
:104A30000000000000000000000000000000000076
:104A40000000000000000000000000000000000066
:104A50000000000000000000000000000000000056
:104A60000000000000000000000000000000000046
:104A70000000000000000000000000000000000036
:104A80000000000000000000000000000000000026
:104A90000000000000000000000000000000000016
:104AA0000000000000000000000000000000000006
:104AB00000000000000000000000000000000000F6
:104AC00000000000000000000000000000000000E6
:104AD00000000000000000000000000000000000D6
:104AE00000000000000000000000000000000000C6
:104AF00000000000000000000000000000000000B6
:104B000000000000000000000000000000000000A5
:104B10000000000000000000000000000000000095
:104B20000000000000000000000000000000000085
:104B30000000000000000000000000000000000075
:104B400000000000000020000000CA01D700210082
:104B50000000410861015201F901D601D601D601D8
:104B6000D601D601D601D701F808A50820002000FB
:104B700000004108610820017001FA01B601D60168
:104B8000D601D601D601D601D601D800A7106008FB
:104B90004100000170019400000000BDF7FFFFFF1D
:104BA000FFFFFFFFFFFFFFFFFFFFFFFFFFFFFFFF15
:104BB000FFFFFFFFFFFFFFFFFFFFFFFFFFFFFFFF05
:104BC000FFAD7500000000BDD7FFFFFFFFFFFFFF37
:104BD000FFFFFFFFFFFFFFFFFFFFFFFFFFFFFFFFE5
:104BE000FFFFFFFFFFFFFFFFFFFFFFFFFF18E400D6
:104BF00000AD75FFFFFFFFFFFF2125000000000053
:104C000000000000000000000000000000000000A4
:104C100000000000000000000000008C92FFFFFF79
:104C2000FFFFFF4A49000000002965FFFFFFFFFF6B
:104C3000FFFFFFFFFFFFFFFFFFFFFFFFFFFFFFFF84
:104C4000FFFFFFFFFFFFFFFFFFFFFFFFFFFFFFFF74
:104C5000FFFFFF39A60000000052ABFFFFFFFFFF80
:104C6000FFFFFFFFFFFFFFFFFFFFFFFFFFFFFFFF54
:104C7000FFFFFFFFFFFFFFFFFFFFFFFFFFFFFFFF44
:104C8000FFFFFFFFFFA53400000000000000000050
:104C90000000000000000000000000000000000014
:104CA0000000000000000000000000000000000004
:104CB00000000000000000000000000000000000F4
:104CC00000000000000000000000000000000000E4
:104CD00000000000000000000000000000000000D4
:104CE00000000000000000000000000000000000C4
:104CF00000000000000000000000000000000000B4
:104D000000000000000000000000000000000000A3
:104D10000000000000000000000000000000000093
:104D20000000000000000000000000000000000083
:104D30000000000000000000000000000000000073
:104D40000000000000000000000000000000000063
:104D50000000000000000000000000000000000053
:104D60000000000000000000000000000000000043
:104D70000000000000000000000000000000000033
:104D80000000000000000000000000000000000023
:104D90000000000000000000000000000000000013
:104DA0000000000000000000000000000000000003
:104DB00000000000000000000000000000000000F3
:104DC00000000000000020000000CA01D700000021
:104DD0000000200840017201F901D601D601D60178
:104DE000D601D601D601B601F901741061080000A0
:104DF000000860080000A9021A01D601D601D601F8
:104E0000D601D601D601D601D601D808A6080008D9
:104E1000401040014F019500000000BDB7FFFFFFAB
:104E2000FFFFFFFFFFFFFFFFFFFFFFFFFFFFFFFF92
:104E3000FFFFFFFFFFFFFFFFFFFFFFFFFFFFFFFF82
:104E4000FFAD7500000000CE79FFFFFFFFFFFFFF01
:104E5000FFFFFFFFFFFFFFFFFFFFFFFFFFFFFFFF62
:104E6000FFFFFFFFFFFFFFFFFFFFFFFFFF00013915
:104E7000E8FFFFFFFFFFFF9492000000000000002A
:104E80000000000000000000000000000000000022
:104E900000000000000000000000001082EF5DFF35
:104EA000FFFFFFDF1C08820020000039E8DEFBFF67
:104EB000FFFFFFFFFFFFFFFFFFFFFFFFFFFFFFFF02
:104EC000FFFFFFFFFFFFFFFFFFFFFFFFFFFFFFFFF2
:104ED000FFFFFF31A6000000005AEBFFFFFFFFFFBE
:104EE000FFFFFFFFFFFFFFFFFFFFFFFFFFFFFFFFD2
:104EF000FFFFFFFFFFFFFFFFFFFFFFFFFFFFFFFFC2
:104F0000FFFFFFA534084100000000000000000082
:104F10000000000000000000000000000000000091
:104F20000000000000000000000000000000000081
:104F30000000000000000000000000000000000071
:104F40000000000000000000000000000000000061
:104F50000000000000000000000000000000000051
:104F60000000000000000000000000000000000041
:104F70000000000000000000000000000000000031
:104F80000000000000000000000000000000000021
:104F90000000000000000000000000000000000011
:104FA0000000000000000000000000000000000001
:104FB00000000000000000000000000000000000F1
:104FC00000000000000000000000000000000000E1
:104FD00000000000000000000000000000000000D1
:104FE00000000000000000000000000000000000C1
:104FF00000000000000000000000000000000000B1
:1050000000000000000000000000000000000000A0
:105010000000000000000000000000000000000090
:105020000000000000000000000000000000000080
:105030000000000000000000000000000000000070
:1050400000000000000020000000CA01D70043005B
:105050002108830862017201F801D601D601D60148
:10506000D601D601D601D601B6021A094F00210099
:1050700022086208A601D701D701D601D601D601C0
:10508000D601D601D601D601D601D708C80821001D
:10509000631061012F01B4002000008410D69ACE65
:1050A00059CE79CE59CE59CE59CE79CE59CE59CE88
:1050B00079CE59CE79CE59CE59CE79CE79CE79D610
:1050C000BA8C300000000094B3D6BACE59CE79CE57
:1050D00079CE59CE79CE79CE79CE59CE79CE59CEF8
:1050E00059CE79CE79CE59CE79D69ABDD7002184C2
:1050F00051DEDBD69AC61818E3000000000000005D
:10510000000000000000000000000000000000009F
:10511000000000000000000000000000004A69CE0E
:1051200079CE79E6FB422900000021000000415AB7
:10513000EC9CD3BDF8CE79CE59CE59CE59CE59CEAE
:1051400079CE79CE59CE59CE79CE59CE59CE79CEA7
:1051500079CE792945000000004208CE79CE79CE7B
:1051600079CE59CE59CE79CE59C659C659CE59CED7
:1051700059CE79CE59CE79CE79CE59C638B5D78C9D
:105180007142280000000000000000000000000044
:10519000000000000000000000000000000000000F
:1051A00000000000000000000000000000000000FF
:1051B00000000000000000000000000000000000EF
:1051C00000000000000000000000000000000000DF
:1051D00000000000000000000000000000000000CF
:1051E00000000000000000000000000000000000BF
:1051F00000000000000000000000000000000000AF
:10520000000000000000000000000000000000009E
:10521000000000000000000000000000000000008E
:10522000000000000000000000000000000000007E
:10523000000000000000000000000000000000006E
:10524000000000000000000000000000000000005E
:10525000000000000000000000000000000000004E
:10526000000000000000000000000000000000003E
:10527000000000000000000000000000000000002E
:10528000000000000000000000000000000000001E
:10529000000000000000000000000000000000000E
:1052A00000000000000000000000000000000000FE
:1052B00000000000000000000000000000000000EE
:1052C00000000000000020000000A9023C01F901DC
:1052D000F901F901F801F90219021902190219027A
:1052E0001902190219021901F9021A021B01F80127
:1052F000F801F8021A021A01F90219021902190238
:1053000019021902190219021901F901F901F8012A
:10531000F801F8023C019300200861002000200001
:10532000000000000000000020000000000000005D
:10533000000000000000200020000000000000002D
:10534000000000000000000000000000000000005D
:1053500000002000200000000000000000002000ED
:1053600020000000000000000000000000002000FD
:10537000200000000000000000000000000000000D
:10538000000000000000000000000000000000001D
:10539000000000000000000000000000000000000D
:1053A000000000002000410000002100000000007B
:1053B00000000000000000000000000000000000ED
:1053C000000020000000000020000000200000007D
:1053D00000000000200000000000000000000000AD
:1053E000200000000000200000000000000000007D
:1053F00000000000000000000000000000000000AD
:10540000000000000000000000000000000000009C
:10541000000000000000000000000000000000008C
:10542000000000000000000000000000000000007C
:10543000000000000000000000000000000000006C
:10544000000000000000000000000000000000005C
:10545000000000000000000000000000000000004C
:10546000000000000000000000000000000000003C
:10547000000000000000000000000000000000002C
:10548000000000000000000000000000000000001C
:10549000000000000000000000000000000000000C
:1054A00000000000000000000000000000000000FC
:1054B00000000000000000000000000000000000EC
:1054C00000000000000000000000000000000000DC
:1054D00000000000000000000000000000000000CC
:1054E00000000000000000000000000000000000BC
:1054F00000000000000000000000000000000000AC
:10550000000000000000000000000000000000009B
:10551000000000000000000000000000000000008B
:10552000000000000000000000000000000000007B
:10553000000000000000000000000000000000006B
:105540000000000000002000000042012F01510176
:105550005001500150012F012F012F012F012F0168
:105560002F012F012F012F012F012F012F0150019A
:105570005001710170014F096F012F012F012F019F
:105580002F012F012F012F012F012F015001500159
:10559000500150017100A800000020000000000030
:1055A00000000000000000000000000000000000FB
:1055B00000000000000000000000000000000000EB
:1055C00000000000000000000000000000000000DB
:1055D00000000000000000000000000000000000CB
:1057C0000000000000002000210000000000000098
:1057D00000000000000000000000000000000000C9
:1057E00000000000000000000000000000000000B9
:1057F0000000000820082008200000000000000031
:105800000000000000000000000000000000000098
:105810000000000000000000210020000000000047
:105820000000000000000000000000000000000078
:105830000000000000000000000000000000000068
:105840000000000000000000000000000000000058
:105850000000000000000000000000000000000048
:105DF0000000001082000000000000000000000011
:105E00000000000000000000000000000000000092
:105E10000000000000000000000000000000000082
:105E20000000000000000000000000000000000072
:105E30000000000000000000000000000000000062
:016640000059
:0F6641003C3C3C3C3C3C3C3C3C3C3C3C3C3C3CC6
:106650003C3C418D3C65DA3EDAB73C3BC33C3C3CBC
:106660003C3C3C3C3C3C3C3C3C3C3C3C3C3C3C3C6A
:106670003C3C3C3C3C3C3C3C3C3C3C3C3C3C3C3C5A
:106680003C3C3C3C3C3C3C3C3C3C3C3C3C3C3C3C4A
:106690003C3C3C3C3C4AB6B6B6B6B63C3C3C493CBD
:1066A0003C133C3C483C3C183C3CA83C3EDE3C385F
:1066B0003C3C4A8D3C4A3C3CB13C3EDE3C383C3C98
:1066C000483C3C183C38A83C493C3C3C3C3C3C3CAD
:1066D0003C3C3C3C3C3C3C3C3C3C3C3C3C3C3C3CFA
:1066E0003C3C3C3C3C3C3C3C3CBA3C3EDE3C403CC4
:1066F0003C333C3CC33C3E3C3C3C3C3C3C3C3C3C5A
:106700003C3C3C3C3C3C3C3C3C3C3CB6B43EB6BADD
:106710003C3C3C3C3C3C3C3C3C3C3C3C3C3C3C3CB9
:106720003C3C3C3C3C3C3C3C3C3C3C3C3C3C3C3CA9
:10673000603C3EA83C3B8D3C3C3C3C3C3C3C3C3CB7
:106740003C3C3C3C3C3C3C3C303C3CBA3C3DC33C8F
:106750003C3C3C3C3C3C3C3C3C603C3EA83C3B8D97
:106760003C3C3C3C3C3C3C3C3C3C3C3C3C3C3C3C69
:106770003C403C3C123C3C603C3C3C3C3C3C3C3C5B
:106780003C3CB13C3BDE3C403C3C183C3CDE3C3CB1
:106790003C3C3C3C3C3C3C3C3C3C3C3C14B6A8B601
:1067A000B6DE3C3C3C3C3C4AB6BA14B6A83C3C3C49
:1067B0003C3C3C3C3C3C3C3C3C3C3C3C3C3C3C3C19
:1067C0003C3C3C3C3C3C3BB53C4AB53C3C483C2F0B
:1067D000BA3EB6A8493EDE184A3C65B63C65123C56
:1067E0003C3C3C3C3C3C3C3C3C3C3C3C3C3C3C3CE9
:1067F0003DB55741B6DE66413EDE48383C3C483C3C
:106800003C2D3DDE14B63C2FB13C3C3C3C3C3C3C7A
:106810003C3C3C3C3C3C3C3C3C3C3DB53C41B63CBF
:1068200060403EB6B438B6BA483C3C2E3BDE14B6A7
:106830003C2FB13C3C3C3C3C3C3C3C3C3C3C3C3C30
:106840003C3C3C3C3DB4BA41B6A8662F3EDE4838DD
:106850003C18483CA82E41DE2FB63C2FCF3C3C18BC
:106860003C3DA838B63C4ABA3C3C3C3C3C3C12124D
:106870003CBABA3DC4C33E3E3C36363C4E4E3C3C30
:106880003C3C3C3C3C3C3C3C3C3C3C3C3C3C3C3C48
:106890003C3C3C3C3C3C3C3C3C3C3C3C3C3C3C3C38
:1068A00013ADDEB6B6DEB3BF3EDA48384818481836
:1068B000A818AAE0BCA4DAA4EC3C3C3C3C3C3C3C20
:1068C0003C3C3C3C3C3C3C3C3C3C4A643C14B53C81
:1068D00015483CA8183EDEA8383EDE48383CB414C3
:1068E0003EBAB43C3C3C3C3C3C3C3C3C3C3C3C3CF0
:1068F0003C3C3C3C3DB53C41B53C662E3EDE483818
:106900003C18483CA82E418D2FB73C2FC33C3C3C43
:106910003C3C3C3C3C3C3C3C3C3C3C3C3C3C1264B9
:106920003CB6B53CB72E3EC32D383C18483CA813A6
:10693000418DB6B43EE3C3383C3C483C3CB63C3E9B
:10694000B43C3C3C3C3C3C3C3C3C38BA3C65A83EFE
:10695000DC3C383C3C383C3C14483EC8BA384ADE43
:1069600049493C2FB63C2F7E3C3C3C3C3C3C3C3CAB
:106970003C3C3C3C3C3C3C3C3C3DB4BA41B6A8664B
:106980002F3EC32D383C18483CA82E41DE14B63C9F
:106990002FEA3C3C183C3CA83C4AA83C14DE3C3C5A
:1069A0003C3C3C3C3EA83C38DE3C403C3C4E3C3C05
:1069B000063C3CDE3C3C3C3C3C3C3C3C3C3C3C3CAB
:1069C0003C3C3C3C3C3C3C3C3C3C3C3C3C3C3C3C07
:1069D0003C3C3C3C3C3C4ADADE1414DE4ADA3C15D2
:1069E0003C3CA83C3EDE3C383C3CB6BA3EB6A83CFB
:1069F0003C3C3C3C3C3C3C3C3C3C3C3C3C3C3C3CD7
:106A00003DB6DE41B63C182D3CB83C3CB6DE3C41C0
:106A1000DE4B383C14B73CB6C33C3C3C3C3C3C3CB5
:106A20003C3C3C3C3C3C3C3C3C3C4A38DE124A3C16
:106A300018483CA8183EDEA8383EDE484A3C2FB62F
:106A40003C2F123C3C3C3C3C3C3C3C3C3C3C3C3CBD
:106A50003C3C3C3C1438A8B44ADEA8483CA8A83EBC
:106A6000E0DE3EEA3C38693C38DE3C4A3C3C3C3C9B
:106A70003C3C3C3C3C3C3C3C3C3C3C3C3C3C143882
:106A8000A8B44ADEA9483EE2183B64C338B63C4A83
:106A9000123C18183CA8C33C3C3C3C3C3C3C3C3CB5
:106AA0003C3C3C3C3C3C3C3C4ADAA8144ADE48189E
:106AB0003C4ADE3C483C3CB43C38483CB4143EBA0A
:106AC000B43C3C3C3C3C3C3C3C3C3C3C3C3C3C3C8E
:106AD0003C3C1438A8B44ADEA8483CA8A83EC28D65
:106AE0003EEA3C38B13C38DE3C493C3C183C3EDE9A
:106AF0003CB6A83EB6DE3C3C3C3C3C3C3C3C3C38D6
:106B00003C3C483C3C183C3CA83CB6B63EB6B43C89
:106B1000483C3C183C3CA83C3EDE3C3C3C3C3C3CBD
:106B20003C3C3C3C3C3C3C3C3C3C3C3C3C3C38B62F
:106B3000DE4AB63C18183C3EDE3C483C3CA83C389B
:106B4000383C14B43CB6BA3C3C3C3C3C3C3C3C3C41
:106B50003C3C3C3C3C3C3C3C483C3EB13C2F3C3B00
:106B6000A83C643C3BA83C3BB13C3DBA3C3C633C4C
:106B70003C133C3C483C3C3C3C3C3C3C3C3C3C3C72
:106B80003C3C3C3C3C3C3EDE3C3BA83C3EB13C3CBF
:106B9000B73C3C643C3C133C3BB13C133C38C33CED
:106BA000633C3EDE3C3C3C3C3C3C3C3C3C3C3C3C5A
:106BB0003C3C3C3C3C3C41A83CB6A83EDFA8383EAF
:106BC000DE3C413C3DBA3C38DE3C483C3C3C3C3C35
:106BD0003C3C38DE3C4A3C3C3C3C3C3C3C3C3C3C49
:106BE0003C3C3C3C3C3C3C3C14A83CB6DE3C2F8D41
:106BF0003CAD3C3B993C48303C18183EB6A838B6F2
:106C0000C3183EE0BA4ADAA8143C3C3C3C3C3C3C4D
:106C10003C3C3C3C3C3C3C3C3C3CB6B13EB6B13ED2
:106C2000DFA8383EDE48413C14BA3CB6BA3EDEBA74
:106C3000383CA8483EDEB6B53EB6B13C3C3C3C3C98
:106C40003C3C3C3C3C3C3C3C3C3C3C3C38AD3C65EE
:106C5000B43EC369403CA8183C3CA83C3EDE3C38EE
:106C60003C3C493C57493BDE2FB43C41A83C3C3CB2
:106C70003C3C3C3C3C3C3C3C3C3C3C3C3C3CB6B660
:106C80003EB6B43EDE18383CA848183C14A83CB6C2
:106C9000DE3EDA3C383CA8483EDEB6B63EB6B43CF2
:106CA0003C3C3C3C3C3C3C3C3C3C3C3C3C3C3C3C24
:106CB000B6B63EB6B43EDE18383CA848183C14A818
:106CC0003CB6DE3EDA3C383C3C483C3CB6DE3EB6A8
:106CD0003C3C3C3C3C3C3C3C3C3C3C3C3C3C3C3CF4
:106CE0003C3C38AD3C65B43BC3BA493CA8183C3C7D
:106CF000A83C3EE0B63838B4493CA82E3EDE2FB65C
:106D00003C41B13C3C3C3C3C3C3C3C3C3C3C3C3C49
:106D10003C3C3C3CB4143EBAB43EDEA8383EDE48AF
:106D2000383C14B43CB6BA3EDEA8383EDE48383CA7
:106D3000B4143EBAB43C3C3C3C3C3C3C3C3C3C3C4B
:106D40003C3C3C3C3C3C14B43CB6BA3C483C3C1853
:106D50003C3CA83C3EDE3C383C3C483C3C183C3C7F
:106D6000A83C14B43CB6BA3C3C3C3C3C3C3C3C3CAF
:106D70003C3C3C3C3C3C3C3C3EB6DE38B63C3CA853
:106D80003C3EDE3C383C3C483EDE18383CA8483EA1
:106D9000DE154A3CB6BA3C2F8D3C3C3C3C3C3C3C6E
:106DA0003C3C3C3C3C3C3C3C3C3CB614E0B4B63E39
:106DB000E0C338493C49A83C14C33CB3DE3EE0DEA6
:106DC00038388D48383CB64AE0B42F3C3C3C3C3C1B
:106DD0003C3C3C3C3C3C3C3C3C3C3C3CB6DE3EB65B
:106DE0003C3CA83C3EDE3C383C3C483C3C183C3CEF
:106DF000A8183EDEA8383EDEB6B63EB6B43C3C3CF3
:106E00003C3C3C3C3C3C3C3C3C3C3C3C3C3CB7B6CD
:106E10003EBCB43EA8A838AADE4ADA3C1AEA3CA432
:106E2000183EDAA8384ADE484A3CB6123EB4693CFD
:106E30003C3C3C3C3C3C3C3C3C3C3C3C3C3C3C3C92
:106E400038A83C14A83EC4A8403DC3183EDEA8386C
:106E50003EDE48383C18403DC349413C4ABA3C4AB2
:106E6000DE3C3C3C3C3C3C3C3C3C3C3C3C3C3C3CC0
:106E70003C3CB6B13EB6BA3EDEBA383CA8483EDE2F
:106E800018493CB6BA3EB68D383C3C483C3CB6DE70
:106E90003EB63C3C3C3C3C3C3C3C3C3C3C3C3C3CB6
:106EA0003C3C3C3C38A83C14A83EC4A8403DC31818
:106EB0003EDEA8383EDE48383C18403DC349413CE0
:106EC0004ABA3C41DE3C2E333EB6A837413C3C3CFE
:106ED0003C3C3C3C3C3CB6BA3EB6BA3EDE69383C33
:106EE000A84838DE14B43CB6A83EDDC3383BDE48C3
:106EF0003BDEB638E0B4383C3C3C3C3C3C3C3C3CA3
:106F00003C3C3C3C3C3C3C3C41A43CB6B438DE6997
:106F1000483C57123C3C14B13C2FBA3C3CBA4B3C69
:106F2000A81538DEB6B43EECC33C3C3C3C3C3C3C93
:106F30003C3C3C3C3C3C3C3C3C3CB6B63EB6B438AD
:106F400048184818A818AADE3EDE3C383C3C483CAD
:106F50003C183C3CA83C4ABA3C14A83C3C3C3C3C59
:106F60003C3C3C3C3C3C3C3C3C3C3C3CB4143EBA91
:106F7000B43EDEA8383EDE48383C18483CA8183EEF
:106F8000DEA8383EDE41493C4ABA3C41DE3C3C3C4E
:106F90003C3C3C3C3C3C3C3C3C3C3C3C3C3CB414E1
:106FA0003EBAB43EDEA83EDA3C3BB73C38A83C389B
:106FB0003C3C483C3C183C3CA83C4ABA3C14A83CED
:106FC0003C3C3C3C3C3C3C3C3C3C3C3C3C3C3C3C01
:106FD00014B43CB6BA3EDFC338383C3C183C3DC321
:106FE0003C403C3C183C3EE0DE40383C14B43CB6EF
:106FF000BA3C3C3C3C3C3C3C3C3C3C3C3C3C3C3C53
:107000003C3C483C3C183C3CA83C4AB6DE14B63CF0
:10701000483C3C183C3CA83C3EDE3C383EDE41B699
:107020003C41B13C3C3C3C3C3C3C3C3C3C3C3C3C26
:107030003C3C3C3C3EB6C338B6A8383DA8483EC3AD
:10704000183EDEA8383EDE48383C18483DA81841B6
:107050003EB6B738B6DE3C3C3C3C3C3C3C3C3C3C61
:107060003C3C3C3C3C3C3C3EB141DAA81438C4BA00
:107070004ADAA8174DDEA4A43EE399384818481808
:10708000A8183EE0B414DABAB63C3C3C3C3C3C3C6C
:107090003C3C3C3C3C3C3C3C3C3C3EBA1438A8B4F8
:1070A000383CA8403B8D48483C18183C61C33CA480
:1070B0003C3ECF3C3BA83C38DE3C493C3C3C3C3C65
:1070C0003C3C3C3C3C3C3C3C3C3C3C3C3C3EB44A78
:1070D000A4BA14DA3C4848301818BAA8A7B38ED11D
:1070E000AC3BBCB741C2B14A38DE15413CA8483C74
:1070F0003C3C3C3C3C3C3C3C3C3C3C3C3C3C3C3CD0
:107100003EBA1438A8B43B3CC33B373C38603C38EB
:10711000DE3C4A3C3CA43C3B373C33403EBA14384E
:10712000A8B43C3C3C3C3C3C3C3C3C3C3C3C3C3CBB
:107130003C3C3C3F3C3C183C3EC33C383C3C303C37
:107140003CA83C3EDE3C383C3C483C3C183C3CA81F
:107150003C3DC33C3EDE3C388D3C383C3C3F3C3CF7
:107160003C3C3C3C3C3C3CA83C3EDE3C383C3ED0BD
:10717000A838B6DE3EBA3C38A83C16A83CAADE3C8D
:107180003C3C3C3C3C3C3C3C3C3C3C3C3C3C3C3C3F
:107190003C3C3C3C3C3C3C3C3C3C3C123C3EBA3CD9
:1071A00038A83C1ADE3DBF3C38483C18183DC3A8FF
:1071B00038B6A84AB6DE3C483C3EB43C38BA3C3C03
:1071C0003C3C3C3C3C3C3C3C3C3C3C3C3C3C3C64D7
:1071D0003C41B43C663C3EDE3C403C3C17B13CB6D6
:1071E000BA3EB1B1388DA83F3EDE48413C2FBA3C93
:1071F0002FDE3C3C3C3C3C3C3C3C3C3C3C3C3C3C3A
:107200003C3C3CB43C3EBA3C383C3C483C3C183CE2
:107210003CA83C3EDE3C383C3C483C3C183C3CA84E
:107220003C3EDE3C383C3C483C3C143C3CB43C3CA2
:107230003C3C3C3C3C3C3CDE3C38DE3C17DE3EE02B
:10724000DE483EDE0F3B3C3C3C3C3C3C3C3C3C3C5A
:107250003C3C3C3C3C3C3C3C3C3C3C3C3C3C3C3C6E
:107260003C3C3C3C3C3C3C3C3C3C3C38DE3C4A3CB2
:107270003C483C3C183DB4A841B6DE662F3EDE4893
:10728000383C18483CA82D38DE14B6DE2FEC3C3CC8
:107290003C3C3C3C3C3C3C3C3C3C3C3C3C3C3C6505
:1072A0008D3BB63C483C3C183C38B6DE4AB63C38D0
:1072B0003C3C483C3C183C3CA83C3EDE3C14B43CC6
:1072C000B6BA3C3C3C3C3C3C3C3C3C3C3C3C3C3C06
:1072D0003C3C3CA83C3EDE3C3C3C3C3C3C38BA3C64
:1072E0004AA83C3EDE3C383C3C483C3C183C3CA870
:1072F0003C14B43CB6BA3C3C3C3C3C3C3C3C3C3C86
:107300003C3C3C3C3C3C3CA83C3EDE3C3C3C3C3CAD
:107310003C38B63C4AB43C3C183C3CA83C3EDE3CC5
:10732000383C3C483C3C183C3CA83C3EDE3C413CA4
:1073300014BA3CB6DE3C3C3C3C3C3C2D3C3DBA3CAB
:10734000383C3C483C3C183C3CA83C3EDE3C2F3C96
:107350003CBA3C3C693C3CA83C3EDE3C383C3C48AA
:107360003C3C143C3C2D3C3C3C3C3C3C3C3C3CA828
:107370003C3EDE3C383C3C483C3C183C3CA83C3E57
:10738000DE3C383C3C483C3C183C3CA83C3EDE3CA7
:10739000383C3C483C3C183C3CA83C3C3C3C3C3CDD
:1073A0003C3C3C3DC33C38DE3C4A3C3C123C3CBA95
:1073B0003C3DC33C3B8D3C403C3C4E3C3C3C3C3C1F
:1073C0003C3C38DE3C4A3C3C3C3C3C3C3C3C3C3C51
:1073D0003C3C3C3C3C3C3C3C4A3C3CC23C3E363C5D
:1073E00037333C38DFDE3C643C41C33DB73C373883
:1073F000DE3C10DE3CE03C3E903C3EA83C3C3C3C4D
:107400003C3C3C3C3C3C3C3C3C3C3C3C3C373C3CC1
:10741000483C3C2D3C3C183C3C603C3CA83C3EDE9F
